:020000040000FA
:06000000020AFE02024D9F
:03002B000208F8D0
:030033000206BF03
:0300530002018225
:03006B00020699F1
:100083000201E1010000000000F8FF07FFFF00008C
:10009300070400000003000147726F757000FF043E
:1000A30000100020FD000200003A100000000000D4
:1000B300009A10000000000000161000000000006D
:1000C30000000000002210000000000000000000FB
:1000D30000000006FFFF1E01CC140000000000001A
:1000E300000000000000000000000000000000000D
:1000F300102020202020202020202020202020200D
:1001030020010104010C000102DB810113820104BF
:1001130000002218000000E8030000FFFF9C180104
:1001230088130000E803000064006400B801A0BB6A
:100133000D00A0BB0D0002020207040101051E020F
:10014300051E020A0A0101010809080103B80B028E
:10015300803E0102FEFFE8030A050001FFFF010ADA
:100163001401E00105030101FF0F10FEFFF12A0056
:10017300000000892A00000000FF000000FF00C00B
:10018300E074F1120464A2AFE433F509D2AF85A79A
:1001930008AFA1EF5508FE74105E6006120D9A7544
:1001A300A1EF74085E6008120DA075A1F78024EF1B
:1001B300A2E092F0E508A2E082F05017906198E087
:1001C300F89004A1E0C398A2D265D0335002E8F0BE
:1001D30075A1FEE509A2E092AF7F020204C3C0E06D
:1001E30074F2120464A2AFE433FED2AF9061A4E0D0
:1001F300F8759B00E59158540860087591F7120D46
:10020300EE8023E59158541060087591EF120DF4B8
:100213008014E591A2E092F0E8A2E082F05007E0BA
:10022300C2E0F0120F4A9061A3E0F8E5E9585404E4
:10023300600E120F2075E9FB906193E0A2E640F295
:10024300EEA2E092AF7F010204C3C0E074F2120495
:1002530064A2AFE433FED2AF9061A5E0F8E5BF58E6
:100263005404600675BFFB120F6280D4C3E498F890
:10027300E499F91202B08026C3E49AFAE49BFBE9FD
:1002830020E7E91202B0E498F8E499F922C3E4986C
:10029300F8E499F91202B0E498F8E499F9C3E49AFE
:1002A300FAE49BFB22EB20E7CFE920E7E0B900105B
:1002B300BB0008E88AF084F8AAF022E4FBC8FA221B
:1002C300EB70227B10C833C8C933C9335007C39AB4
:1002D300C3DBF280069A50012ADBEAC833F4C8C9AB
:1002E30033F4C9FA2275F008E4C833C8C933C933F3
:1002F300C99AC99B5004C92AC93BD5F0ECFBC83342
:10030300F4C8E4C9FA22080808EAC0E0EBC0E086B2
:10031300F0E7A4FA180986F0E7A42AFA180986F088
:10032300E7A42AFA180986F0E7A42AFA1986F0E75F
:10033300A4FBE5F02AFA190886F0E7A42BFBE5F005
:100343003AFA190886F0E7A42BFBE5F03AFA1818F5
:100353000986F0E7A4C5F02BFBE43AFA1908E7C5D0
:10036300F0C6A426F6E5F03BFBE43AFA1886F0E77C
:10037300A4F6E5F00826F6E43B08F6E43A08F6D0DE
:10038300E0FBD0E0FA22E4CFC0E0E4CEC0E0E4CD6D
:10039300C0E0E4CCC0E075F020E626F608E633F6CC
:1003A30008E633F608E633F6181818EC33FCED3399
:1003B300FDEE33FEEF33FFC3EC9709ED9709EE979C
:1003C30009EF97191919400FFFEC97FC09ED97FDF9
:1003D30009EE97FE191906D5F0BFECF709EDF709F9
:1003E300EEF709EFF7191919D0E0FCD0E0FDD0E0E2
:1003F300FED0E0FF222518C582C0E0E51934FFC511
:1004030083C0E0E518C3958224F810AF08858319EB
:100413008582188008858319858218D2AFCEF0A310
:10042300E520F0A37808E608F0A3DEFAEFF0A3E5F1
:100433008124FAF8E608F0A3E608F0A3E608F0A39F
:100443000808E608F0A3E608F0A315811581D0E0BB
:10045300FED0E0F8158115811581E8C0E0EEC0E01B
:1004630022C0D02518C582C0E0E51934FFC583C07A
:10047300E0E518C3958224F310AF088583198582BC
:10048300188008858319858218D2AFC8F0A3E9F0D4
:10049300A3EAF0A3EBF0A37908E709F0A3D8FAECF9
:1004A300F0A3EDF0A3EEF0A3EFF0A3D0E0F0A3D020
:1004B300E0F0A3D0E0F0A3E520F0A3E5F0F0A32261
:1004C300851983851882E0C0E0A3E0F9A3E0FAA3CD
:1004D300E0FBA37808E0F608A3DFFAE0FCA3E0FD65
:1004E300A3E0FEA3E0FFA3E0C0E0A3E0C0E0A3E03D
:1004F300F5D0A3E0F520A3E0A3F5F010AF088583C2
:10050300198582188008858319858218D2AFD08215
:10051300D083D0E0F8D0E032120B78B900030205A3
:100523005AE4900401789979188002F0A3D8FCD991
:10053300FA7A997B1B90008678FD79018015E49304
:10054300A3AD82AE838A828B83F0A3AA82AB838D11
:10055300828E83D8E9D9E775824575839D74061227
:10056300086F758222758328740012086F75F01066
:100573008E1A8F1B85821F85831E8518828519839A
:10058300E0CEA3E0CF851F82851E83EBC9EAC8EDC9
:10059300CBECCAC3E833C8E933C9EA33CAEB33CB7C
:1005A300C3EA9EF51DEB9FF51CB35004AB1CAA1DBB
:1005B300EC33CCED33CDD5F0DAAE1AAF1B22D083BA
:1005C300D082ECC0E0EDC0E0E493A3FCE493A3FD90
:1005D300ED4C600D1206DDEC24FFFCED34FFFD80D5
:1005E300EFE493A3FCE493A3FDED4C600D12077AB3
:1005F300EC24FFFCED34FFFD80EFD0E0FDD0E0FC08
:10060300E493A3C0E0E493C0E022851983851882B4
:10061300E0A3FEE0A3F5207808E0A3F608DFFAE004
:10062300A3FFE0A3C0E0E0A3C0E0E0A3C0E0E0A339
:10063300C0E0E0A3C0E010AF08858218858319806D
:1006430008858218858319D2AFD083D082020875BA
:10065300D083D082E9C0E0E493A3C386F0C5F095CC
:10066300F0F908E493A386F0C5F095F0700BE493DA
:10067300A3C3994005E9048002A3E475F002A4250D
:1006830082F582E5F03583F583D0E0F9E493A3C0E6
:10069300E0E493C0E022C0E074F2120464A2AFE489
:1006A30033FED2AFE589A2E15003120CDA7589005B
:1006B300C2C5EEA2E092AF7F010204C3C0E074F2B0
:1006C300120464A2AFE433FED2AFE58BA2E0500381
:1006D300120CDA758B00C2E880D8C0E0C3E49396AD
:1006E300087401939618400FE49366700808740128
:1006F30093661870007019A3A3C3E493960874015A
:10070300939618A3A3400DD0E0D0E0D0E00205FDFE
:10071300A3A3A3A3A3A3D0E0227404800474028040
:1007230000CCC0E0EDC0E0E518C39CCCAD1950018E
:100733001D10AF068C188D1980068C188D19D2AF39
:100743001207F1D0E0FDD0E0FC2274028000CCC09F
:10075300E0EDC0E0E518C39CCCAD1950011D10AF0E
:10076300068C188D1980068C188D19D2AF1207CFFD
:10077300D0E0FDD0E0FC22C0E0C0F088F0E4936656
:1007830070080874019366187000A8F0A3A3700B97
:10079300D0F0D0E0D0E0D0E00205FDA3A3D0F0D0AC
:1007A300E022D083D082CCC0E0E493A36006120899
:1007B300121470FAE493A360061209711470FAD04C
:1007C300E0FCE493A3C0E0E493C0E022CAC0E0E409
:1007D30093A3C582CCC582C583CDC583F0A3C5824F
:1007E300CCC582C583CDC583DAE5D0E0CA22CAC0B1
:1007F300E0E0A3C582CCC582C583CDC583F0A3C584
:1008030082CCC582C583CDC583DAE6D0E0CA22C0D7
:10081300E0E493A3D39C5010E493A3C39C400AD079
:10082300E0D0E0D0E00207C2A3A3A3D0E022C00837
:10083300C3E096F50808A3E096420808A3E09642B1
:100843000808A3E09645087001D3D0082270090870
:100853000808226016181818C6C333C608C633C65C
:1008630008C633C608C633C6D5E0EA22C09FF59F43
:10087300E473D09F22D083D082C09FE493C0E074FE
:100883000193C0E0740293F59F227404800A7403F9
:100893008006740280027401C0E0F4041208C3D01D
:1008A300E0120B3B2200C0D0251810AF08F51850FA
:1008B3000C05198008F51850020519D2AFD0D022C3
:1008C3002518F58210AF08F518400C15198008F5A6
:1008D3001840021519D2AF85198322BB0102E72202
:1008E300C082C08389828A83BB0003E08002E493D1
:1008F300D083D08222C0E0C0D0E8C0E0A8A8D2AFA5
:10090300C2C7E8A2E792AFD0E0F8D0D0D0E032601F
:1009130016080808C6C313C618C613C618C613C6D6
:1009230018C613C6D5E0EA222518F8E43519F922CA
:100933002518FAE43519FB222518FCE43519FD22A4
:10094300C3E0C696F608A3E0C696F608A3E0C696EB
:10095300F608A3E0C696F622251810AF08F518404E
:100963000C15198008F51840021519D2AF22C0E002
:10097300E493A36C7009D0E0D0E0D0E00207C2A3F7
:10098300A3D0E022E066701008A3E066700A08A313
:10099300E066700408A3E06622C3E09608A3E0962D
:1009A30008A3E09608A3E096A2D265D03322E766B7
:1009B30070100809E766700A0809E76670040809F9
:1009C300E76622C3E697F60809E697F60809E6976D
:1009D300F60809E697F622C3E49396087401939602
:1009E3000874029396087403939622C3E096F00862
:1009F300A3E096F008A3E096F008A3E096F022E6C1
:100A030057F60809E657F60809E657F60809E657C0
:100A1300F622E026F608A3E036F608A3E036F60849
:100A2300A3E036F622E493F608740193F608740201
:100A330093F608740393F622E056F608A3E056F6FD
:100A430008A3E056F608A3E056F622E056F008A302
:100A5300E056F008A3E056F008A3E056F022E6477C
:100A6300F60809E647F60809E647F60809E647F6F1
:100A730022700422600D18C6C333C608C633C6D518
:100A8300E0F41822E627F60809E637F60809E63700
:100A9300F60809E637F622E026F008A3E036F00868
:100AA300A3E036F008A3E036F022E4C396F608E4A8
:100AB30096F608E496F608E496F622600D08C6A2B8
:100AC300E713C618C613C6D5E0F322C6F4C608C694
:100AD300F4C608C6F4C608C6F4C622C3E7960809D6
:100AE300E7960809E7960809E79622C3E09608A364
:100AF300E09608A3E09608A3E0962275D0007581DE
:100B03003F7518017519040002051BE6F008A3E6FA
:100B1300F008A3E6F008A3E6F022600C08C6C313AE
:100B2300C618C613C6D5E0F422E0F608A3E0F6081B
:100B3300A3E0F608A3E0F622CAC0E0E6F0A308DAD1
:100B4300FAD0E0FA22E8F0A3E9F0A3EAF0A3EBF08D
:100B530022E0F8A3E0F9A3E0FAA3E0FB22EAF0A382
:100B6300EBF0A3ECF0A3EDF022E0FAA3E0FBA3E0AB
:100B7300FCA3E0FD22E5C754F84401F5C77901223F
:100B83002518F582E43519F58322C2AF75D69F0285
:100B930000002212087876CF0512087862D0051279
:100BA300087800D1051208781BD10512087885D181
:100BB300051208788FD10512087899D105120878A3
:100BC30036D205120878F4D20512087855D40512E6
:100BD3000878ACD405120878E4D4051208788AF1B1
:100BE3000112087806F20112087839F20112087826
:100BF30067F20112087881F4011208789DF401125A
:100C03000878E2F40112087867F501120878B3F561
:100C13000112087843F6011208781BF701120878CD
:100C23006CF701120878D1F7011208784EF8011217
:100C3300087884F801120878CFF801120878F5F8DB
:100C43000112087885F9011208781CFA0112087854
:100C530068FA0112087899FA01120878D0FA011299
:100C6300087861FC011208782BFD0112087805FE53
:100C730001120878ECAD06120878FDAD061208786B
:100C83009BAE06120878B3AE06120878F57F001201
:100C93000878EAFF0512087812B00612087822B025
:100CA300061208783AB006120878A2B0061208783D
:100CB300FFA90612087882AA06120878E8AA061283
:100CC3000878F6A00612087815A10612087882A102
:100CD30006120878C7A10612087820A2061208781F
:100CE3009CA706120878B1A70612087825A8061251
:100CF30008783FA80612087856A80612087864A850
:100D0300061208787CA8061208789AA806120878B2
:100D13000D8C061208781B8C06120878948C061228
:100D23000878688D061208783A8F06120878C6B1DB
:100D330006120878DEEF051208780AF00512087823
:100D43007BF205120878BBF205120878FBF2051254
:100D530008780FF30512087828F30512087819F4B8
:100D630005120878BEF405120878D2F40512087843
:100D7300C3A306120878E7A30612087800A4061294
:100D8300087832A40612087862A4061208788FA4A1
:100D930006120878F1A40612087800A5061208784E
:100DA3000AA50612087817A5061208784D7D0012C9
:100DB30008786D7D00120878AC7D00120878C77D35
:100DC30000120878E67D001208784C7E001208783D
:100DD300557E00120878B27E00120878C17E001298
:100DE3000878E57E00120878A67F00120878B37FA2
:100DF30000120878C47F00120878FFB00612087842
:100E030017B10612087843B1061208784280061219
:100E13000878968106120878A48106120878B781AB
:100E230006120878CC8106120878E1810612087848
:100E3300F48106120878688206120878CD820612B9
:100E430008786F830612087833840612087843847F
:100E53000612087852840612087879AF06120878C9
:100E63009DAF06120878C5AF06120878EDAF0612DB
:100E73000878BE9806120878E59806120878039950
:100E830006120878769906120878249306120878D1
:100E93003D93061208784993061208785D9306126B
:100EA30008787B93061208788593061208788F9347
:100EB30006120878A293061208782C940612087872
:100EC300A19406120878D594061208782395061281
:100ED30008787095061208788B9506120878959510
:100EE30006120878BB950612087820960612087831
:100EF300C2AE06120878E4AE0612087875B206127E
:100F0300087860DF051208788ADF05120878A7DF02
:100F130005120878BADF05120878D0DF05120878C1
:100F23002EE00512087866E0051208785EE40512E3
:100F33000878A3E505120878D6E50512087839E69E
:100F430005120878B2E705120878DAE7051208787F
:100F5300EFE705120878FFE70512087843E8051262
:100F630008789EE805120878AEE805120878CFA83D
:100F730006120878E9A80612087811A9061208785B
:100F83002AA9061208784EA9061208786CA9061237
:100F9300087883A906120878B1A906120878CCA9A3
:100FA30006120878BCFF041208789F8F061208788F
:100FB300AF8F06120878B49006120878E6900612EE
:100FC300087816910612087839910612087850911C
:100FD300061208788A9106120878EF9106120878AB
:100FE300319206120878709206120878A1920612BE
:100FF3000878CC920612087865A60612087883A6AC
:1010030006120878E8A60612087887A70612087859
:10101300FCAC06120878DEFE0112087824FF0112E8
:10102300087844FE051208789BFF0512087821A56D
:101033000612087845A6061208782AD505120878FC
:101043009FD80512087895DA05120878C3DB0512D4
:101053000878A0DC051208781BDE05120878E7DEA5
:10106300051208783BDF05120878349F06120878CA
:10107300559F061208788FA006120878B9A00612A9
:1010830008788BB1061208789BB106120878A5B1CF
:1010930006120878E9E704120878ECE704120878E6
:1010A30022EF041208785CF004120878AFF10412FE
:1010B300087867F2041208784EF30412087837F4BC
:1010C300041208782FF504120878E1F50412087861
:1010D30011F604120878CBF7041208785FA20612FF
:1010E30008787FA20612087893A30612087896A3BD
:1010F3000612087801AC0612087837AC0612087895
:101103004DAC061208788FAC061208789FAC061215
:101113000878AEAC06120878F2AC06120878B2F87A
:1011230004120878ECF80412087855F904120878C8
:1011330072F9041208788BF9041208782DFA041254
:10114300087836FA041208787BFA04120878A4FAAD
:1011530004120878B1FA0412087822FB0412087802
:10116300ADFB04120878FBFB0412087839FC041267
:1011730008789EFC04120878C1FC0412087838FD34
:10118300041208788FFD04120878CAFD0412087847
:10119300FFFD0412087811FE0412087823FE0412DE
:1011A300087842FE041208784BFE0412087806FF02
:1011B3000412087852FF0412087890FF041208788A
:1011C300E6F40512087826F60512087849F60512A2
:1011D30008785AF60512087859F80512087879F84C
:1011E300051208780F9B06120878459B06120878AB
:1011F3008D9B06120878E69C06120878A5B00612A5
:101203000878886900120878AC6A00120878E66AE0
:1012130000120878906C00120878BA6C00120878F3
:101223002F6F001208786F6F001208780571001293
:101233000878A27100120878F47100120878977286
:1012430000120878CF720012087811730012087820
:10125300807400120878CE7500120878FF770012A8
:1012630008782D78001208785478001208785D7891
:1012730000120878B47800120878467900120878CA
:10128300737C00120878F67C0012087855B20612B7
:1012930008786BB206120878F8FB031208780EFC84
:1012A30003120878B2FC03120878F1FC03120878E1
:1012B3000EFD031208783FFD031208788CFD03121C
:1012C3000878BFFD03120878FAFD03120878EFFFD0
:1012D3000312087801AB0612087860AB061208788F
:1012E3009EAB06120878DFAB0612087846B10612E9
:1012F300087852B1061208785DB1061208780080AA
:10130300041208780C80041208786E80041208789E
:101313007880041208780981041208784581041240
:101323000878008204120878618204120878CC825B
:10133300041208783B8304120878BB8304120878EC
:1013430052850412087827870412087863880412E8
:101353000878C68904120878798A04120878358FC8
:10136300041208782A9004120878BF9004120878AF
:10137300E49004120878809104120878959104127D
:101383000878B991041208782A92041208784792CF
:1013930004120878719204120878079404120878EA
:1013A300289404120878CE94041208781595041230
:1013B30008787A9504120878FB95041208785F96EA
:1013C30004120878BB96041208785197041208781F
:1013D300C49704120878F897041208785B980412EB
:1013E3000878BB9904120878529B04120878FF9B73
:1013F30004120878649E04120878CD9E04120878BB
:10140300F79E0412087822A104120878ADA30412EF
:101413000878A8A40412087897CA0412087826CB7F
:10142300041208789CCB041208787BCC0412087849
:1014330076CD04120878F3CD0412087831CF041264
:101443000878CCCF04120878A3D10412087892D27A
:1014530004120878AFD204120878D2D304120878A1
:1014630013D504120878B5D504120878E7D8041206
:101473000878E3DA041208786DDB04120878C7DB16
:101483000412087815DC0412087890DC041208783A
:101493000DDD041208784EDD04120878CCE3041243
:1014A30008781DE604120878F4E6041208782B96EF
:1014B30006120878B49606120878939706120878ED
:1014C300B89706120878E09706120878E397061291
:1014D3000878EC9706120878EF97061208782AB274
:1014E300061208782AE4021208785CE402120878EB
:1014F300D8E40212087826E6021208780CE70212F2
:101503000878CEE802120878F3E80212087845E971
:1015130002120878C7E9021208780EEA0212087864
:1015230021EA0212087878EA02120878D1EA021254
:10153300087897EB0212087803EC021208782DEC76
:101543000212087876EC02120878FBED0212087892
:10155300D4EE0212087823F00212087804F1021282
:1015630008788CF102120878CFF102120878E9F1B9
:101573000212087830F20212087850F20212087848
:101583000BF30212087818F4021208782CF40212F2
:10159300087880F402120878DAF4021208782BF53E
:1015A3000212087827F602120878A1F802120878C6
:1015B300C0F80212087835F9021208785AF90212B3
:1015C3000878D7F9021208789DFA02120878DAFA35
:1015D3000212087853FB0212087847FC02120878BB
:1015E3004AFC0212087854FC021208785EFC0212CC
:1015F300087871FC02120878EDFC0212087823FDCA
:101603000212087836FD0212087862FD0212087889
:1016130089FD02120878ADFD02120878E8FD021276
:1016230008785AFE0212087882FE021208788CFEAD
:1016330002120878C8FE02120878E2FE0212087845
:1016430007FF0212087835FF021208784BFF0212D7
:10165300087863FF0212087875FF02120878A8FF62
:1016630002120878C0FF02120878F27F001208788D
:10167300DEE8051208782DE905120878CDEA05128F
:10168300087888EC05120878CAEC05120878B3EDDF
:1016930005120878BDEE05120878DFEE051208780A
:1016A30029EF05120878AAEF05120878CBD903129F
:1016B3000878EED90312087859DB03120878A2DB05
:1016C30003120878FCDB0312087862DC0312087843
:1016D30065DC03120878B1DC031208782BDD0312F2
:1016E3000878BCDD03120878BFDD0312087851DEE9
:1016F3000312087894DE03120878FDE203120878D7
:101703008DE403120878C0E4031208781BE5031282
:10171300087878E803120878EDE8031208788BEA72
:101723000312087890EB03120878B2EC03120878DE
:1017330024ED0312087800EE031208788EEE0312EC
:10174300087891EE031208786BEF031208789FF084
:101753000312087851F20312087800F40312087890
:10176300B6F40312087859F50312087845F6031204
:101773000878F1F7031208780AF90312087863FA74
:1017830003120878B0FA0312087845FB03120878AD
:10179300008005120878A080051208780A810512D6
:1017A3000878238105120878B28105120878F6813A
:1017B300051208780A83051208784683051208780B
:1017C300CC830512087817840512087876840512ED
:1017D3000878818505120878968805120878C889E3
:1017E30005120878498A05120878488C051208788A
:1017F300ED8C05120878908D05120878EF8D05128F
:101803000878648E05120878B08F051208787B90EB
:1018130005120878B19005120878CE900512087861
:10182300749105120878C091051208784C9205123C
:101833000878CD93051208787C9505120878CC9624
:10184300051208783898051208784899051208781F
:10185300EE9905120878579A05120878769B0512B7
:101863000878CCA80412087840A90412087888A93B
:1018730004120878C6A90412087815AA0412087875
:101883005FAA0412087897AA0412087815AB041209
:1018930008786FAB04120878CBAC041208785AAD01
:1018A3000412087871AE0412087899AE041208780D
:1018B300DFAF04120878F0AF0412087808B00412FE
:1018C300087812B104120878DCB104120878E9B27E
:1018D300041208780DB30412087824B304120878AC
:1018E30045B30412087867B30412087884B304126A
:1018F300087860B404120878B8B4041208784AB7B8
:101903000412087899B704120878B8B70412087853
:1019130097B804120878CDB80412087867B2051294
:10192300087862BA04120878CFBA041208780BBB9D
:101933000412087874BB041208782EBC04120878C9
:10194300ECBD04120878EDBE0412087872C00412CC
:1019530008785DC204120878C0C40412087866C609
:101963000412087834C7041208789AC70412087856
:10197300B1C704120878A1C8041208788DC90412EB
:101983000878FAC904120878ACCE05120878F389EE
:1019930006120878B08A06120878148B06120878A3
:1019A300888B061208788B8406120878A98406129D
:1019B3000878ED84061208781385061208783985AD
:1019C3000612087851850612087869850612087888
:1019D300CC85061208780E86061208783087061220
:1019E30008783987061208784287061208784B87E9
:1019F30006120878558706120878AFF90512087899
:101A0300CAFD05120878D8FD05120878DDFD051218
:101A13000878C19D06120878FEB106120878008086
:101A2300031208783280031208789E800312087824
:101A3300398103120878D881031208781D820312B2
:101A430008783F82031208785882031208787E824E
:101A530003120878A08203120878DE820312087842
:101A6300228303120878448303120878A68303129F
:101A730008786D8403120878248503120878968504
:101A830003120878688603120878B286031208786E
:101A93000587031208786B8703120878A58703125A
:101AA3000878F787031208781388031208783E88AA
:101AB30003120878458A03120878998B0312087871
:101AC300BB8B03120878EF8B03120878108C031278
:101AD30008781F8C031208782A8C03120878DA8C92
:101AE30003120878438D03120878F08D03120878E7
:101AF300288E03120878EE8E03120878FB8F0312E8
:101B03000878459003120878D49003120878389126
:101B130003120878739103120878DF93031208788D
:101B23003395031208786C980312087839990312D5
:101B33000878C79903120878F09903120878629A13
:101B430003120878F69A03120878549B0312087854
:101B5300469C03120878689C03120878C49D0312FC
:101B63000878DD9D03120878F09D031208784D9ED6
:101B7300031208785C9E03120878EF9E031208781C
:101B8300FB9F0312087808A00312087811A0031220
:101B93000878E9A1031208780FA3031208781FA39A
:101BA3000312087821A40312087898A40312087872
:101BB300C7A403120878CDA50312087813A603124D
:101BC3000878DFA703120878B7AB03120878C1AB14
:101BD30003120878D5AB03120878DFAB0312087839
:101BE300E9AB03120878F3AB031208780CAC0312C9
:101BF300087816AC031208788AAC0312087895ACFF
:101C030003120878BAAC03120878C5AC031208783B
:101C130013AD031208781DAD0312087828AD031223
:101C230008784CAD0312087870AD03120878CCAD78
:101C33000312087812AE031208782FAE0312087845
:101C4300ACAE03120878E3AE0312087822AF031296
:101C530008786FAF03120878F1AF031208788AB0DF
:101C6300031208785AB203120878B8B2031208783C
:101C7300D4B303120878FAB30312087839B5031200
:101C830008785FB803120878A0BA031208787CBCFE
:101C93000312087812BD0312087839BF03120878BB
:101CA300E5BF031208781AC0031208787FC0031235
:101CB300087889C003120878B3C203120878DAC31C
:101CC300031208781AC403120878C0C403120878F0
:101CD30051C603120878DAC703120878FAC7031249
:101CE300087853C80312087855C9031208789FC9A6
:101CF30003120878EFC903120878D9CA03120878C7
:101D03004ECB0312087868CC03120878E3CC031295
:101D13000878E8CD0312087893D003120878B2D07C
:101D23000312087813D203120878D5D30312087864
:101D330029D403120878E1D40312087890D503124A
:101D43000878E6D5031208789CD60312087831D7B1
:101D5300031208789DD703120878D7D7031208789F
:101D630008D80312087864D9031208780080021295
:101D73000878328002120878698002120878528249
:101D8300021208783583021208788D8302120878CC
:101D9300C884021208781485021208783C8802125B
:101DA30008789E8B02120878EB8C02120878818DDA
:101DB300021208788D8D02120878BF8D02120878FE
:101DC300418F021208784F9002120878799002121C
:101DD3000878D09002120878299102120878959118
:101DE30002120878AC93021208783B950212087825
:101DF3000596021208784397021208787399021223
:101E03000878439C02120878509C02120878D79CE9
:101E1300021208787F9D02120878C29D0212087888
:101E23000B9E021208785F9E02120878C49E02126B
:101E330008782C9F02120878499F02120878799F2C
:101E430002120878AE9F021208787EA00212087868
:101E530027A102120878ABA302120878CBA40212BE
:101E63000878B4A50212087836A60212087858AA90
:101E73000212087895AA02120878EDAA02120878CD
:101E830020AB02120878A1AB02120878EEAB021263
:101E9300087879AC02120878CBAC02120878A2ADAC
:101EA300021208785BAE02120878F6AE02120878C6
:101EB3000FB2021208782FB302120878E0B60212AA
:101EC3000878FEB70212087801B80212087830B811
:101ED3000212087836BA021208780FBB0212087889
:101EE30044BB021208784CBC0212087802BD0212ED
:101EF3000878A3BE02120878C8BE0212087807BF8A
:101F03000212087879BF021208785DC002120878BD
:101F13002AC10212087860C302120878D1C30212E0
:101F2300087811C4021208784AC402120878DEC481
:101F33000212087827C602120878EAC90212087842
:101F4300D9CA02120878C0CB0212087838CC021220
:101F53000878FACC02120878F8CE0212087810CF6B
:101F63000212087824CF021208785CCF0212087894
:101F73008ACF0212087811D1021208781CD20212F9
:101F830008786ED202120878D6D20212087888D363
:101F930002120878B8D3021208789CD40212087887
:101FA3004DD5021208783CD70212087871D7021275
:101FB3000878D9D70212087808D902120878BAD952
:101FC30002120878EBD90212087803DA02120878B1
:101FD30092DA0212087846DD021208781EDF021236
:101FE30008783ADF0212087856DF0212087824E0F4
:101FF3000212087808E4021208781982011208789C
:102003005182011208782F8701120878758701120F
:102013000878C288011208782D8901120878B68AD7
:1020230001120878C68D01120878E18E0112087832
:10203300F39801120878869901120878D89C011246
:102043000878D49D011208782F9E01120878799F91
:102053000112087867A00112087803A30112087817
:1020630077A401120878FAA401120878FDA40112DA
:10207300087872A5011208787CA50112087889A551
:1020830001120878B4A50112087864A60112087831
:102093005DA70112087808A80112087826A8011282
:1020A30008783FA80112087868A8011208788AA85E
:1020B30001120878DFAA01120878A4AB011208788C
:1020C300E9AB0112087868AC0112087814AD01126B
:1020D300087846AD011208789AAD01120878D5AD9B
:1020E300011208781CAE011208786CAE0112087850
:1020F30071AE01120878C5AE01120878F1AE011273
:102103000878DAAF011208782BB0011208788BB087
:1021130001120878E5B00112087880B1011208783D
:10212300BFB401120878D1B5011208784BB7011278
:1021330008785BBA01120878F9BA01120878EFBD82
:1021430001120878AEBE01120878F2BE01120878B7
:102153009DC001120878B1C001120878BBC00112FA
:102163000878C5C001120878D1C001120878F6C0FA
:1021730001120878CFC20112087824C3011208782B
:102183002EC30112087838C301120878ADC30112B7
:102193000878FCC3011208780DC5011208785AC5E6
:1021A3000112087867C601120878ABC601120878D5
:1021B30051C70112087844C8011208780AC90112EC
:1021C30008782DCA011208784BCB0112087833CC5A
:1021D300011208784BCC01120878A2CC01120878BE
:1021E300ACCC01120878B6CC01120878C1CC01122C
:1021F3000878DFCC0112087827CD0112087889CD41
:1022030001120878B0CD01120878C2CD0112087806
:102213005DCE0112087892CE0112087879CF0112AF
:102223000878BECF01120878A4D001120878CBD069
:10223300011208784ED101120878BFD10112087833
:1022430048D30112087874D40112087837D50112E3
:102253000878FFD50112087889D601120878B1D71A
:102263000112087853D801120878CED801120878E1
:102273008AD901120878D4D9011208782EDA01120A
:10228300087806DB0112087829DB01120878DCDB09
:1022930001120878FEDB0112087867DC0112087866
:1022A3007DDE0112087875DF0112087839E001122A
:1022B30008786BE201120878B5E20112087805E3A9
:1022C3000112087869E301120878CBE30112087858
:1022D300F9E3011208781DE40112087852E40112AF
:1022E300087883E401120878B6E40112087806E559
:1022F3000112087859E5011208787EE60112087880
:102303001EE80112087879E801120878A2E80112A0
:1023130008782FE9011208789DE901120878ABE9E2
:1023230001120878CFE90112087824EA011208782B
:102333003FEA01120878F1EA0112087829EB011249
:1023430008786CEB01120878CFEB01120878D1ED15
:1023530001120878FBED01120878F2EE01120878F9
:10236300FCEF01120878ACF001120878E1B4051211
:10237300087819B5051208783AB5051208787CB5BE
:1023830005120878DEB505120878E8B50512087855
:10239300F8B50512087833B60512087813BA051292
:1023A300087800BC05120878E6BD051208787DBEE2
:1023B300051208781FBF05120878792F00120878D4
:1023C300243000120878D23000120878D831001275
:1023D3000878F83100120878213300120878DC34C9
:1023E300001208784F3500120878F3350012087888
:1023F300FF36001208786A3700120878A6370012F1
:102403000878E9370012087824380012087866380B
:1024130000120878FB380012087877390012087820
:10242300413A001208781E3B00120878B63B0012AE
:102433000878D03B00120878003C00120878313C41
:1024430000120878F73C00120878073D001208785C
:10245300563D00120878633D001208786C3D001267
:102463000878EA3D00120878463E00120878913E4B
:1024730000120878AC3E00120878D73E00120878A4
:10248300F43E00120878003F0012087897400012CB
:102493000878B040001208783541001208784841A6
:1024A300001208786741001208780B42001208787E
:1024B3008C43001208783F4500120878D545001276
:1024C3000878D8450012087848460012087866460E
:1024D30000120878FD460012087845470012087874
:1024E3004847001208780E48001208787B4800120B
:1024F3000878A148001208782C49001208784A4944
:1025030000120878904900120878444A00120878AB
:102513008E4A00120878BD4A001208781A4B00123E
:1025230008784F4B001208787B4B00120878894BD0
:1025330000120878D64B00120878464C001208782F
:102543008F4C00120878DB4C00120878074D0012FC
:102553000878124D00120878304D001208781B4E8F
:1025630000120878254E00120878604E0012087891
:10257300704E00120878C44E00120878D84E00122C
:1025830008780750001208781C5000120878AA50E7
:1025930000120878EF50001208787B510012087877
:1025A300865100120878C85200120878E3520012CC
:1025B30008782F53001208789E5300120878D753D7
:1025C30000120878F1530012087851540012087869
:1025D300F054001208783B55001208780B5800128B
:1025E3000878BD58001208782A59001208786A5BE7
:1025F30000120878825B00120878855B0012087865
:10260300915B00120878A55B00120878AD5B00129D
:102613000878E05B00120878E35C00120878705DCC
:1026230000120878E05D00120878625E00120878F4
:10263300235F00120878425F00120878E35F0012FC
:102643000878406000120878436000120878B76089
:10265300001208780662001208780C6300120878EA
:10266300976300120878B264001208787A65001242
:102673000878AB6500120878CE6500120878D76534
:102683000012087806660012087896660012087829
:102693004C6700120878C167001208786868001256
:1026A3000878DD6800120878146900120878526906
:1026B30000120878BBB00512087879B005120878C3
:1026C300ABAF0512087895AF0512087856AF05121F
:1026D3000878B0AE0512087894AB0512087867A99C
:1026E3000512087837A905120878DBA805120878BF
:1026F30075A80512087834A80512087814A80512DD
:10270300087846A705120878E1A60512087885A679
:102713000512087828A605120878C6A405120878B9
:1027230063A405120878ADA305120878A8A30512BF
:10273300087891A3051208785CA30512087887A08E
:102743000512087807CC0512087884A005120878CA
:1027530052CB05120878DACA0512087852B405126A
:10276300087807B4051208789BB30512087838B3C4
:10277300051208786BA00512087860A00512087886
:102783003CA005120878829E051208780EB3051244
:1027930008780A9E05120878A19D05120878209DE5
:1027A30005120878DC9C05120878DEB20512087859
:1027B300B59C051208784E88061208788FCA051250
:1027C300087836CA05120878F8C905120878CBC903
:1027D3000512087897C90512087836C905120878D2
:1027E3001EC905120878EEC805120878C3C505127C
:1027F300087896C3051208789DC10512087823C18D
:1028030005120878D2C0051208788CC00512087822
:10281300D4B205120878F6BF05120878E5B90400AA
:10282300000080FBE47387000100741C3500040082
:102833003A1C250002003E1C26000200401C270013
:102843000200421C280001004C1C290001004D1C01
:1028530084000400291986000100A71B2A00010037
:102863004E1C2B0001004F1C2C000100541C2D009A
:10287300080037192E000100551C2F000100561CBB
:1028830030000100571C31000100581C32000100C8
:102893003F1933000100401934000100591C360070
:1028A30001004119380001005A1C39000100531C72
:1028B30083000200721C630001004C1964000100D4
:1028C300501C65000100511C6D0001004D19710081
:1028D30008002F1966000100711C43000100621CEF
:1028E30044000200631C45000100651C4600020011
:1028F300661C47000800441948000100681C4B008F
:102903000100691C04000100751CA1000100781C72
:1029130037000100771C88000100761C3C00010091
:1029230042193D0001005B1C490002006A1C67005C
:1029330001004E194D0002006C1C4E0001006E1C7C
:102943004F0002006F1C3E000100611C510001009A
:102953005D1C520001005E1C53000100601C54000A
:102963000100431900000000000000013636010198
:102973000001020100010301000104010606050232
:102983000000070100340801000F090401010D01D3
:1029930000FF0E08000017020000190100FF1A01D2
:1029A30000011B0100FE1C0100081D0200001F01A5
:1029B300000120010001210200002301000F240275
:1029C30000002601000127010008280200FF2A0158
:1029D30000072B0102402C0100002D0100012E01F4
:1029E30000012F0100FF30010B1D310800003A01E7
:1029F30000083B01000F3C0100013D0100FF3E04C4
:102A0300000042040000460400004A0400004E0493
:102A1300000052040000560400005A0400000000A5
:102A2300030020011682000000002001178200002D
:102A3300040042017A810000050042011F81000069
:102A430006004201288100000700300118820000BF
:102A530010004203061C000011003003EA170000B7
:102A630012001003171C030000002103EB170000E2
:102A7300FDFF210111820300FDFF210111820204E8
:102A830000002905E8170103710301030103010392
:102A930001030103220302030103100300030003E4
:102AA30000030003000300030003420300032403A5
:102AB3000603000300030403120325032303250372
:102AC300230304030403000300030003440300037C
:102AD300000323030003650321003503810300037F
:102AE300050300030003000300032503230303007E
:102AF30071003001600011007000310220035004A6
:102B03008000100061000000140063007300720075
:102B130062004300000013000600000000000400F0
:102B23001200000000000000000004000400370051
:102B330037003C0244000000000000000000650074
:102B43000000350081000000050000008300000044
:102B530003047104020460041104700402040204F7
:102B630001040204100461040004140463047304E4
:102B73007204620443040004130406040004000402
:102B8300040412040004000400040004510464005B
:102B930000040004000444040004000400040004CE
:102BA30065040004350481046400050400048304FF
:102BB300000403027102300160021102700201027B
:102BC300020202028002100261023A004100630223
:102BD300730272026202430200021302380000020F
:102BE30000020402120200020002000200020402B8
:102BF3000402370037003C0244020002390000029D
:102C0300000265020002350281020002050282020F
:102C1300830200020101710101010101110101019E
:102C23003101010101018001100161013B00140028
:102C33006301730172016201430100011301060183
:102C43003D013500040112010001000100010001F2
:102C530004010401330133013C0144013201360014
:102C6300000100016501000135008101000105013A
:102C730082018301000136000100060000000F00FD
:102C830000000000000000000000000003FFFF0040
:102C9300000403FFFF0000FFFF0FF4010005C4045D
:102CA3000320000100140B000000000000000003DB
:102CB300010F000000000000000000000000000001
:102CC3000000000000000000000000000000000001
:102CD30000000000D6130014DC131C13E2130614C7
:102CE300E2131214E8131C13E2130614EE131C135D
:102CF30000000000F4131C1300000000000000009B
:102D0300FA131C1300000000000000000000000084
:102D130000000000000000000000000000000000B0
:102D230000000000000000000000000000000000A0
:102D330013004E171F0054171F805A170000D21795
:102D43000100D2170200D0160280CA160300D6165D
:102D53000400DC160480E2160500E8160600F416EB
:102D63003000121731000C1732001E1733002417DE
:102D730035002A1734003017360036171100421772
:102D83001400481715000617FFFF00000A00000093
:102D93000200000004000000080000001000000012
:102DA300200000004000000080000000000100003F
:102DB30000020000000400000008000000100000F2
:102DC3000020000000400000013620066620086055
:102DD300200B8420101E1D023C2005542007422096
:102DE3000C1E200D2A2064021BFF000007ECFDFDD2
:102DF300FDECDCDCCCBCACAC9C9C8C7C7C6C6C5C5F
:102E03005C5C4C4C3C3C2C2C1C1C00160F00000B37
:102E1300150B020002220F3300000E0F000000000A
:102E23000000000000000000000000005A69674233
:102E33006565416C6C69616E63653039D0D1D2D3FD
:102E4300D4D5D6D7D8D9DADBDCDDDEDF150AF4D466
:102E5300C0A5958272636155504900034D4C46519C
:102E6300181A250502003C40423A3F3F392F4730AC
:102E730000011916181616182303003030171819F5
:102E830021301B1D1F30303016181920231A1C1E29
:102E9300300C0E020B040B0A0708000F0204020198
:102EA300010101090200BE040AE8030000F6FB0168
:102EB30000030000000000E803EF2D0E004F2E7FFB
:102EC3000005101E04041E10080C2800040D020047
:102ED3000909033C0C080508150300FF030C0AFF4E
:102EE300E4F0A3F0A3F0A322122EE3F022901A99A8
:102EF3001244EF12242622122EFE22E0F508E4F5F6
:102F030009F50AF50B22E824FBF582E934FFF58382
:102F130022E82411F582E439F583E022F583122FA8
:102F23002522E0F508A3E0F509221226A274041273
:102F330008A87F0802060D7401F09004B9E0640F3D
:102F43002274091208A87F0402060DEA2413FAE486
:102F53003FFB1225D0E92279051225DC740622A352
:102F6300A3E024F5C39413221226AE9004D912646D
:102F7300AD7A147B0022C082C083901A78741AF051
:102F8300A37424F0A3742CF0A37424F0901A7C741B
:102F930002F0A37424F0A374FCF0A37423F0A374CD
:102FA30038F0A37424F0A3743EF0A37424F0A37444
:102FB30032F0A37424F0A374EAF0A37423F0901AFC
:102FC30088740EF0A37424F0A37414F0A37424F093
:102FD300A37408F0A37424F0A37444F0A37424F03E
:102FE300901A99124EBE6009901A991244EB12116D
:102FF300F6901A961248057408125B5AA3F0901BB8
:1030030042F0901A9BF07C0BFDF97A9C7B1A12110B
:103013002A7C0B7D0079007AA77B1A12112A0246BB
:103023005F74F71203F874F712095BEAFEEBFF1201
:1030330030B774051249237403F01231CE124905D7
:103043002430FCE43FFD8C821230AF1230C36008A1
:103053001238DC74FFF0A3F0EE242EE43F1C1CFDB9
:103063008C82F583A3E0C0E08A828B831245B7D0BC
:10307300E01230C388828983124DF22403F0EE12EA
:1030830038E6120B837403F09004CE120720740207
:1030930012093B1234B01208A8E9F5087007EEFADA
:1030A300EFFB1224B6A90874090238F5F583E0880A
:1030B30082898322EA1230BC221250013FF5832217
:1030C300125DDA124911E8F0A3E91260B1E022744B
:1030D300F01203F8EAFEEBFF8C0C8D0D890B123115
:1030E300CEF5831249197410120B83E0F508A3126D
:1030F30030B1F0E824FFF582E91234C2E508F0E8C4
:1031030024FEF582E91234C2E50BF09004D3E0C04B
:10311300E0E824FDF582E91234C2D0E0F09004D255
:10312300E0C0E0E824FCF582E91234C2D0E0F07498
:1031330012120B83122F21122F09E509F0E824FA4A
:10314300F8E934FFF98882F583E508F0EE2404FCFE
:10315300E43FFD88088A828B83E0F50E8C828D83A1
:10316300E0250EC39508125DDA12473F850C828570
:103173000D83A3A3A3A3A3A3A3A3E064037009EEF6
:103183001248F3F0A3E480031234C71234CF740956
:10319300F075089C75091A750A00780812089112CF
:1031A30058A41208A87508FF7509FF780812089536
:1031B300AC0CAD0D1234B01208A8E9F5087007EE97
:1031C300FAEFFB1224B6A908022F35EA2402FAE427
:1031D3003FFB8A8222C082C083901AB8E0C394085E
:1031E300400474078001E08A828B83F033333354C5
:1031F300F8F902465F74F01203F88A088B09890A0A
:103203008C0E8D0F750C00A2AFE433F50BC2AF909B
:103213001AB280451232FA503D12331464037036E9
:10322300E50824F9F508E50934FFF5098E828F8353
:10323300A3A3E02405FCA3E03400FDAA08AB091214
:1032430012E6E50824FFF508E50934FFF5097410D3
:10325300250CF50C150A1236E9126862E50A6004BA
:10326300EE4F70B0E50BA2E092AFA2AFE433F50BE3
:10327300C2AF901AB2803E124DCB8882F5831240C2
:103283003F850882850983F08A82898312330BA3E1
:10329300A3E0C0E0E50824FFF582E5091234C2D0BB
:1032A300E0F0E50824FEF508E50934FFF509050C0F
:1032B300150A1236E912353D602112331464027087
:1032C300F11232FAEE40B0124A3AA2E550E4850E0A
:1032D30082850F837401F0E50A70D7E50BA2E092B3
:1032E300AF850882850983E50CF0E50824FFFAE53C
:1032F3000934FFFB022F35123300A2E622EE24111C
:10330300F582E43FF583E02212330F22124E10A31D
:10331300228E828F83A3A31245BB1254E72274F03B
:103323001203F874F312095B7403120B83E9F0744C
:1033330002120B83EAF08B0B851882851983E4F064
:10334300041209331223CCE9F89004B8E029243796
:10335300F508FA7B001211428A0C8B0DAE0CAF0DEF
:10336300EA4F70030234A7EA2402F50EE43FF50F97
:10337300A808EA28F8E43BF9850E82850F83123EFC
:103383003B9004B8E0F9FAC3E49AFA95E0FB850EA2
:1033930082850F83E02AF50CA3E03BF50D9004B67C
:1033A300122F21750A007808120891E9FC7D00AA02
:1033B3000CAB0D1248751208A8AC18AD19740112A4
:1033C3000B83E0F9E50C24FFFAE50D34FFFB122330
:1033D300D28A828B83E4F0E50BC454F0F9901B434B
:1033E300E0C4333354C0F89004B2E0A2E0E43313F2
:1033F300134849440FC0E0EA24FFF582EB1234C2BC
:10340300D0E0F0EA24FEF50CEB34FFF50D74031263
:103413000B83E0F87402120B83E0C454F048850C6C
:1034230082850D83F0A80C850E82850F83125B279E
:103433002AC3988E828F83A3A3A3A3F0850E8285CC
:103443000F83E8F0A3E50DF01234C71234CFE4F094
:10345300740C120B83E4F07508A775091A78081227
:1034630008911258A41208A8851882851983E06070
:1034730009EE240E124A3C4408F01225BEE9F9E491
:10348300F508F5097808120895740612093B1234F9
:10349300B21208A8E97006EEFAEFFB800BEEFAEF22
:1034A300FB1211487A007B00740D022F327903EE70
:1034B300FAEFFB1225D6740222EE24FFF582EF34D5
:1034C300FFF58322EE1230BCE4F0A322F01234D4D1
:1034D30022EE1257C73FF5832274F21203F88A0CC7
:1034E3008B0DA2AFE433F50AC2AF7508007509006E
:1034F300901AB2802C1236F95024850C82850D83E4
:10350300A3A31258B78E828F83A3A31244EB122571
:10351300C4E9600A1236F4C2E6F08E088F09123647
:10352300E912353D70CFE508450960061235D6D25C
:10353300E6F0E50AA2E092AF800DE0FEA3E0FFEE25
:103543004F2274021208A87F0602060D74F01203BC
:10355300F88A0E8B0F8C0C8D0D750A00A2AFE43325
:10356300F50BC2AF7E007F00901AB28010AE08AF99
:10357300091235CE124A3AD2E7F01244C91244DD99
:1035830060341235D6A2E750F1850882850983A3FA
:10359300A3120720AC0CAD0DAA0EAB0F1225CA74F3
:1035A300021208A8E960D3EE4F60C21239707006A8
:1035B3001235E8D2E4F0E50BA2E092AFEE4F6006DD
:1035C3001224B0750A01A90A022F35123300D2E47E
:1035D300F0EE22E5081257E13509F583E022AA82CD
:1035E300AB831212E68E828F83A3A31245BBE02224
:1035F30074F21203F874FE12095B750C00750D006A
:10360300851882851983E4F0A3F0A2AF33F50AC2CB
:10361300AF901AB2126862802BEE24FBF582EF346E
:10362300FF122F1F780C1208951236D71208A8EE36
:10363300FCEFFDAA18AB19121166AE08AF09901A78
:10364300B8E014F0EE4F602B1236F9501DEE240B48
:10365300F8E43FF98882F583E024FFF0A3E034FF28
:10366300F088828983124EBE60AF8E0C8F0D1236A6
:10367300E980A1E50AA2E092AF901AB8E0602C902D
:1036830004B9E0640F6006901B42E0701E7A907BE1
:103693001A1226AE90820B12071C7A907B1A1246DE
:1036A300E71208A8800574F01245C8AA18AB1912CE
:1036B300116C8A088B09AE08AF09EA4F6013122315
:1036C300DE1236F4A2E28E828F83A350D974E9808E
:1036D300D7023545EEFCEFFD7AB27B1A12117874EE
:1036E30002228E0A8F0BEE24FBF582EF34FFF58363
:1036F30022EE12330122123300A2E72274F71203DF
:10370300F8EAFEEBFF1223DE1245B4122827E96420
:10371300019004D5700AE02401F8A3E0340080038B
:1037230012453AF9124C3C12473F901AB8E0701F09
:103733009004B9E0640F70177A907B1A1226AE904A
:10374300820B12071C7A907B1A1246E71208A8A86C
:10375300A8C2AF901AB8E004F0E8A2E78004E50835
:10376300A2E092AF024B4A74F71203F8EAFEEBFFB2
:10377300EA1237A0F01223DEEEFCEFFD7AB27B1AD9
:10378300121172A8A8C2AF901AB812408E9004B951
:10379300E0640F70057908122576024B4A12330153
:1037A300C2E42274F71203F874EA12095BEAFEEB2F
:1037B300FF9004B2E0602A8518828519837401F0B2
:1037C300120B83E412385B120B831235E1C0E074F1
:1037D3000A120B83D0E0125B47740B120B83124D5A
:1037E300A774160238F574F71203F8EAFEEBFF121A
:1037F30023C0E9F974DC69601E74DD69601974E43F
:1038030069601474F369600F74DE69600A74DF69B8
:10381300600574DB697007EEFAEFFB12257C024B3F
:103823004A74F71203F874EB12095BEAFEEBFF85A7
:103833001882851983740612385B120B83AA82AB34
:10384300831212E6EE2408FCE43FFD740A120B8394
:10385300124DA774150238F5F0EA2413FCE43FFD7A
:1038630074022274F71203F874F712095BEAFEEB91
:10387300FFEA2430124A3C605DEA1238E6120B83F9
:103883007403F09004CE1207201238DC1207209044
:1038930004E1E0F9740412093BEEFAEFFB1223C6CC
:1038A30074041208A8E9F974DC69602374DD6960A3
:1038B3001E74E469601974F369601474DE69600F3F
:1038C30074DF69600A74E869600574DB697007EE88
:1038D300FAEFFB12257C0230AAEE242EF582E43F98
:1038E300F58322125CB8AA18AB191212E6740822E7
:1038F30074031208A8024B4A74F21203F88A0C8B61
:103903000D750A00750B007508E7A2AFE433F509DE
:10391300C2AF901AB280031236E512353D6025120C
:1039230036F950F312397070EEEE2432123B07E091
:103933006870E4780A1208951236D71208A8901A0C
:10394300B8E014F0E509A2E092AFEE4F6013EEFA8F
:10395300EFFB1223DE79F0EEFAEFFB12257C7508FC
:1039630000A908AA0CAB0D12257C02354A1234D4E7
:10397300E064012274F41203F874F712095BEAFE9F
:10398300EBFF8A82F583A3E064F37003023A158A9E
:10399300828B83A3E064DF60798A828B83A3E064F4
:1039A300E8606F8A828B83A3E064DB606512242066
:1039B300E9F5087055EE240E124A3C604D123A1F89
:1039C30060487408120B83123A2E1207207508FF01
:1039D3007509FF78081208958E828F83A3A3A3A38A
:1039E300A3A3A3A3E0F9740412093B1223C674042E
:1039F3001208A8E9F50874F369600F74DF69600AB7
:103A030074E869600574DB69700F8E828F83A3E5A8
:103A130008F0EEFAEFFB12242C022F44EE240FFAE7
:103A2300E43FFB7909122462EA4B2274021252AD7D
:103A330074FFF0A3123A3B22124DFBA3A32274F1AD
:103A43001203F8EAFEEBFF7508008A82F583A3A34D
:103A5300A3A3A3A3122F6240037508E88A828B8372
:103A6300A3A3A3A3A3A3A3A3A3A3E0C39410400569
:103A73007508E880138A828B83A3A3A3A3A3A3A3BC
:103A8300A3A3A3E0640F600B901B1FE05408700313
:103A93007508E8EA240B123B07A3A3A3A3A3A3A3DC
:103AA300A3E0C398500DEA240B124A3C640F600351
:103AB3007508E89004D2E0F47003A3E0F470037592
:103AC30008EC7A237B001211F08B0BA90B901A9947
:103AD300123B1660278E828F83A3A3A982AA8389B0
:103AE3000C8A0D750E00780C1208917C237D0090D2
:103AF3001A99E0FA1248751208A8800375081AA9E2
:103B03000802589FF582E43FF583E0F88A828B83AD
:103B1300A3A322EAF0A3EBF0EA492274F51203F817
:103B2300EAFEEBFF8A82F583A3A3A3A3A3A3A3A324
:103B3300E09004B9123BAEE09004D4F0EA240B12F7
:103B43004A3C9004B4123BAEA3E0901B43F0F9123D
:103B53000E9C901B43E0600BEE2404124A2E2406B5
:103B6300123BA4901B42122F3A600474018002742A
:103B730000901A9B1261F21208917C0B7D007A9CD3
:103B83007B1A1248751208A8EE2418F508E43FF5CD
:103B93000978081208917C0B7D007AA77B1A0248EA
:103BA30062FAE43FFB79E1120E84221261DCA3A3E3
:103BB300A3A32274F71203F8EAFEEBFF8A82F583CC
:103BC300A3E07003122EF0125D63024B4A74F712E6
:103BD30003F8EAFEEBFF901A99124EBE6010901A9A
:103BE300991244EB901A99E4F0A3F01211F68E8225
:103BF3008F8374081245CF1219FA024B4A74F612D6
:103C030003F8901B42E06010901A9BE0700A123C8C
:103C13001EEA4B60031224B6025E5D9004B4E0FB1F
:103C23009004D4E0FA9004B9E0F91223D82274F492
:103C33001203F874E712095BEAFEEBFF750B018AC6
:103C430082F583A3A3A3A3A3A3A3E0A2E25069EAFB
:103C5300242BF582E43F1258B5EA2413FAE43FFB20
:103C63001223E4E97052908167E064017005750BDB
:103C7300008045123CF01208917C0B7D00741112F8
:103C830009331248751208A81225BEE9FA740E12F8
:103C9300092B880889097808120895750830750971
:103CA300007808120895EE125B10120720125CAA26
:103CB3007901122F5C1208A8851882851983741064
:103CC300F0125CAA7402120B83AA82AB831212DA7B
:103CD300EE242B1264A3740B120B8312473F740D53
:103CE300120B83E50B125F1C7419022F46EE240896
:103CF3001261FA22C082C083901B43E06003122644
:103D03003002465FC082C083901B3A7478F0A3747C
:103D13001AF0A3747CF0A3741AF0A37488F0A3744C
:103D23001AF0901C8B7453F0A3742BF0901B247423
:103D3300BAF0A37423F0901ABD74F0F0A37423F0C7
:103D4300901ABF74F6F0A37423F0901B1FE0440293
:103D5300024163C082C083EAFCEBFD7903024E6A31
:103D6300C082C0837908025FDDC082C08374FE1203
:103D7300095B901AC5749EF0A37424F0901AC7745B
:103D830098F0A37424F080077AB27B1A123DC8908E
:103D93001AB2124EBE70F1901AB4124EBE60097A76
:103DA300B47B1A123DC880EF901AB2E4F0A3F090EE
:103DB3001AB8F0A3F0A3F0901AD374DAF0A3742422
:103DC300F07402801C12116C851882851983EAF045
:103DD300A3EB123DDC1225AC22F0AA18AB19227416
:103DE300111208A802465F74F61203F8E9FF74681B
:103DF30029F582E4342EF583E493FEFA7B00121155
:103E030042EA4B6007EA2E123E3880267A027B0094
:103E1300121142EA4B6017747E2FF582E4342EF5BB
:103E230083E4938A828B83F0A3741A1242017A008B
:103E33007B00025E5D12472EE8125DD7A3A3A3A306
:103E4300E4F022E9FC740629F8EAA2E0501EE875C2
:103E5300F00A84E5F0F96014740A28C399F8E9C3F9
:103E630094054004740A28F8740B28F8ECC39413DF
:103E73004004791480027906E82979002409F8506E
:103E830001097A0A7B001202A8E8F9020875C082C8
:103E9300C083901B1FE05402600A121A00E96004F9
:103EA30079018002790002465FC082C083901B1FA4
:103EB300E054026014901AB8E0700A124EBB600915
:103EC300123ED1500479018002790002465F122F1D
:103ED30014A2E722C082C083908164E0F8901ABAEA
:103EE300E0C398500512114280047A007B00024619
:103EF3005FC082C0831225AC790002465FC082C0D6
:103F03008374FE12095B851882851983EAF0A3EB9B
:103F130012406AA3A3A3A3A3E0600A14605724FE7C
:103F2300605A023FDA9004B9E0640F6012122582EE
:103F3300E9700C1244E5901AC11245B71228279074
:103F430004E1E0C0E0851882851983124DDED0E0DC
:103F530012406A74141257FBFCA3E0FD7AB47B1A77
:103F6300121166A8A8C2AF901ABA12408E79201215
:103F73002576023DC4124338741580D9124338A301
:103F8300A3A3A3E060511243381235ECC0E08518B7
:103F930082851983E02406F582E43BF583D0E012A1
:103FA30057FB2402F8A3E03400F98882F583E02468
:103FB30001FAA3E03400FB88828983EAF0A3EB12C1
:103FC30057FB124378851882851983601312403F8B
:103FD30060051240514048AA18AB191225AC8092D3
:103FE30012403F60F2124051502112405EFA851890
:103FF30082851983A3E0C82406124334F8749E1201
:104003004FF3342EF583E4936A601485188285197F
:104013008312403F640870BF12405E640870B81298
:10402300405E14124072240AC0E085188285198309
:104033001245B7D0E012407204023F5812404322A7
:1040430012453AC82406F582E438F583E022851840
:1040530082851983124043C3940A228518828519E5
:104063008312330FA3E02212407CF583888222124D
:10407300407CC8240612436222F085188285198386
:1040830012453A22A8A8C2AF901AB9E004F0E8A2F8
:10409300E792AF22C082C083901AC9124EBE600855
:1040A30012433F1228278002790002465F74F712F9
:1040B30003F8EAFEEBFFEA1234D574011246EDF879
:1040C300A3E0F91230B712473FEA2435124A3CC045
:1040D300E0EA2413F582E43FF583D0E0F0EA2436E6
:1040E300124A3CC0E0EA2414F582E43FF583D0E0B1
:1040F300F0EA2438124A3CC0E0EA2418F582E43F8F
:10410300F583D0E0F0EA242FF582E43FF58312072C
:1041130020125CB7EA2431124A3CF91234B6120871
:10412300A8E9F5087007EEFAEFFB1224B6A9080216
:104133004B4AC082C083122582E960047920800241
:10414300790102465FC082C083EA2411124159D229
:10415300E0800DEA240DF582E43BF583E022F0A331
:10416300F002465FC082C08312415664017011128F
:1041730041FB400C8A828B83A3E0F912257C806685
:104183001241ECA2E650128A828B83A3E0F9901AC3
:10419300C31245B7122827804D1241566401700D92
:1041A3001241FB50088A828B83743080368A828B5B
:1041B30083A3E0641B8A828B83700474228024A30C
:1041C300E0700D124156F87489124FF3342E800BB0
:1041D300124156F8747E124FF3342EF583E4938A1A
:1041E300828B8312420102465F1241F022EA2410BD
:1041F300F582E43BF583E0221241F0A2E322F09042
:104203001B1AE0F912114E2274F71203F8E9FE1299
:104213004EBB7003024331EE6014741B6E701AE8D8
:104223001257C739F583E064057003024309901AF6
:10423300BC12433FA3E402431074E96E7068E824A0
:1042430012F582E439F583E0700B121A06E9600572
:10425300124382606179EE120E06901ABB12435923
:10426300901ABB603A124385901ABB700B124359E4
:1042730014F0120FC8024331124377C2E7124520EC
:10428300240D124334640370091243521244D6D2EC
:10429300E2F079ED120E0612436A12282780781293
:1042A300434574E9806774E16E703E121A06E96053
:1042B3005512438270509004DBE0C0E01243522455
:1042C30012F582E438F583D0E0F09004CAE0C0E050
:1042D300901ABB12434E12434ED0E0F09004CAE052
:1042E30004F07901120FB08045741C6E7018901A97
:1042F300BB1244EB901ACB1245B7122827901ABB76
:10430300E4F0A3F08028901ABB124345EEF0901A14
:10431300BB1244EB1224A4124501E0548060031243
:104323005FCC901ABBE4F0A3F07910122576024B10
:104333004A12436222851882851983A3E0F5838894
:104343008222124349221245BFA322124E0C22900D
:104353001ABB124DED22124DED241212436222F5C7
:1043630082E438F583E022901ABB1244EF901ABF1F
:104373001245BB22E0F8A3E0C82410124362229046
:104383001ABB124508E054042274F41203F8750AA8
:1043930000750B00A2AFE433FEC2AF124EBB600345
:1043A30002447F1245B4122827E94410F8901AB248
:1043B300800985080A85090B1244C91244DD70037C
:1043C30002447F1235D6586870E8780A120895AC13
:1043D30008AD091236DB1208A8901ABBE508F0A352
:1043E300E5091245201244D6A2E750030244869001
:1043F3001AB9E014F0EEA2E092AF901ABBE0240EDB
:10440300F8A3E03400F9E8FEE9FF8882F58312445B
:10441300EB901ABB124064F9122468E9901AB612A1
:104423005B5A8E828F83E0548060181243522413A8
:10443300124334F9120EC01243522414124334F9B6
:10444300120EB4124501A3E05401605F901AB61234
:104453004EBE60451245176040124517F87900902B
:104463001AB61244EB1202B0E8C0E01244F5D0E0F1
:10447300124525C3941340117402800FEEA2E092FB
:10448300AF8037901AB80243F57400C0E0901ABCAD
:10449300E0C81244C0D0E0800D1244F57401124507
:1044A300201244C07401F07903800C901ABB1243AC
:1044B30077A2E1B3E433F9120FB0022F49241AF5BE
:1044C30082E438F58322E50824FBF582E50934FF0D
:1044D300F583221257E112436522122F25E5084581
:1044E30009228518828519831244EF22E0FAA3E09A
:1044F300FB22124DEA2419F582E438F58322901A3F
:10450300BB1245082212453AC81245102212500127
:1045130038F58322124DEA241812436222124532DF
:10452300C822124532F5838882A3A3A3A3E022F015
:10453300901ABB12453A22E0F8A3E02274F7120363
:10454300F8EAFEEBFF1225A6124A39A2E3400A124B
:10455300397070059081628003908163E0F9EEFC0D
:10456300EFFD7AB27B1A12117EE96038EEFAEFFBA7
:10457300901AC51245B7122827EE240E124A3C544E
:10458300047012124087EE1230B8A3E05401701E7B
:104593001224B08019EEFAEFFB901ABD1245B71240
:1045A3002827800A8E828F83A374F11245C8024B99
:1045B3004A901AC71245BB221245BF22E0F8A3E076
:1045C300F5838882221245CF1224A422F0EEFAEF5B
:1045D300FB2202465874F71203F8EAFEEBFF790058
:1045E300901B1FE05402700CEA2433124A3C54041B
:1045F300600279E8901B1FE05460700CEA243312C8
:104603004A3C5402600279E88A828B83A3A3A3A362
:10461300E0F8908168E0C398500279E8EA24311207
:104623004A3C700CEA242E124A3C700479F5800B44
:10463300E97005122492E9F9E96007EEFAEFFB123B
:10464300257C024B4AC082C0838A828B83740DF01F
:104653001219FA8007C082C0831224B0D083D0829B
:1046630002087574F41203F8EAFEEBFF8A82F583FD
:10467300E4F0A31246ED54049081627012E0F890C6
:104683001AB9E0C398401279F112257C022F49E050
:10469300F8901AB8E0C39850EE1246F3A3E0540121
:1046A3006037EA2437124A3CC394054033EA243383
:1046B300124A3C540570297ACD7B1A1226AEEE2499
:1046C30037F582E43FF583122EFA780812088D7AC3
:1046D300CD7B1A1246E71208A8EEFA1250E480AC1A
:1046E30079E880A51226A2740422F01246F3E02290
:1046F300EA2433F582E43FF5832274F61203F8E9E2
:10470300FE2451FAE43400FB121142EA4B6015EE29
:104713008A828B83A3A3A3A3F0EA245112472E1208
:10472300473F80047A007B00025E5DF8E43BF98A30
:10473300828B83A3A3221264AD901B97E8F0A3E9B5
:10474300F022024658C082C083901AD67404F0A3A4
:104753007425F0A37434F0A37425F0A3740AF0A3B2
:104763007425F0A37410F0A37425F0A3742EF0A3A2
:104773007425F0A37422F0A37425F0A3741CF0A392
:104783007425F0A3743AF0A37425F0A37440F0A346
:104793007425F0A37446F0A37425F0A37452F0A318
:1047A3007425F0A37416F0A37425F0A374FEF0A38C
:1047B3007424F0A374F8F0A37424F0901AF274280C
:1047C300F0A37425F0A3744CF0A37425F0A37466CE
:1047D300F0A37426F0A37458F0A37425F0A3745EB9
:1047E300F0A37425F0901B16E4F0901B19F0901BB6
:1047F300021248057402F0901B0B12480574010263
:1048030041637476F0A37425F0A32274F51203F8C0
:1048130074F112095B8518828519837402F074019F
:10482300120B83E9F060047AFF7BFF7402120B839F
:104833001252A275080E75091B750A007808120832
:10484300917C0B7D007407120B83AA82AB83124801
:10485300751208A8AA18AB191219FA740F8003125B
:1048630048751208A87F0302060D7C0B7D007A0EA3
:104873007B1B12111E74032274F71203F874FD12CA
:10488300095B851882851983740AF07401120B83FE
:10489300E9F07402120B83EA125F1C0238F374F618
:1048A3001203F874F712095BEAFEEBFFEA1248F30E
:1048B3001249237402F0EA2428FCE43FFDAA18AB52
:1048C300191212DAEE24311248F9243312591B1249
:1048D3000895740212093B79831A1A1234B4120828
:1048E300A8E9F5087007EEFAEFFB1224B6025E564C
:1048F3001230BC740122F582E43FF583122F251296
:104903004DC3F583124911E8F0A3E9F0EE221249F1
:10491300198A828B8322E024FFF8A3E034FFF92273
:10492300F0A3E4F0EA1234D52274F01203F8126310
:104933008B120B2C7808790C120309780812088D56
:104943007A057B1B022F2D74F41203F874C6120927
:104953005B9004B9E0640F600D8518828519837438
:104963002E1252C180227AFC7B1A122F6B1202B0D4
:1049730088088909E4F50AF50B780812088D7AFC92
:104983007B1A1246E71208A8743A022F4674F512EE
:1049930003F8EAFEEBFF8A82F583A3E0F87078EA76
:1049A3002430124A3C64026007E06403600278E842
:1049B300EA2426F582E43FF583122F64400478E865
:1049C3008058E87052EA2426123BA4EE2431124A9E
:1049D3002E2430124A3C6402700EEE24281264A383
:1049E3009004C812473F80179004C874FEF0A304D4
:1049F300F0EE2428FCE43FFD7ABF7B041212E6EEBE
:104A0300241B123CF312089112486D1208A8EEFA07
:104A1300EFFB1224F2E9F8E8600EE88E828F83A39D
:104A2300125CBF7417125D69024868FAE43FFB79B0
:104A330050120E84EE22EE2410F582E43FF583E05B
:104A43002274F61203F874F712095B901B19E070D5
:104A5300377401F0F9120F7AAA18AB191225B87539
:104A6300080E75091B780812089575080175090069
:104A730078081208959004CE120720740612093B99
:104A83007A03122F5A1208A8025E5874F71203F819
:104A9300124C6A7004A374EBF0901B19E0A2E2506D
:104AA30003C2E2F0E0A2E15005124C7B80098E8242
:104AB3008F83742A125D69024B4A74F41203F874EB
:104AC300FE12095B124B70124DB6EC8518828519E4
:104AD30083124E05E0F50B7015AA18AB1979531222
:104AE3000E84EE2413FAE43FFB794A120E84123C3F
:104AF300F012089112486D1208A81244E5A90B128E
:104B030024E6901B19E0A2E15003124C82901B197A
:104B1300E4F07402022F4674F71203F8EAFEEBFF87
:104B23008A82F583A374EBF0901B19E0A2E150078E
:104B33007A0079EB1224ECEEFAEFFB1225228007C0
:104B4300EEFAEFFB1226247F0102060D74F712031F
:104B5300F8124B70901B16E4F0901B19F07AFF7B50
:104B6300FF8E828F83A3E0F91224E680DA124CBB16
:104B73007A057B1B1226AE2274F71203F8EAFEEBCA
:104B8300FF12251C80BA74F71203F8124CF8A3A382
:104B9300A3E060047400800274EB124BC95003C29B
:104BA300E2F0E0A2E15005124CCC8011A2E0500DDE
:104BB3008E828F83742AF0A374EB125D69EEFAEF91
:104BC300FB1224C880818E828F83A3F0901B19E08F
:104BD300A2E22274F61203F8EAFEEBFF901B19E03F
:104BE300D2E1F07901120F7A8E828F83A3E07038BD
:104BF3001225BEE9FAEE240DF508E43FF50978081D
:104C03001208957508017509007808120895124C69
:104C13003C120720EE2402FCE43FFD122F5A120837
:104C2300A8E98E828F83A3F08E828F83A3E0600630
:104C33007A00F91224EC025E5DEE240BF582E43F68
:104C4300F5832274F71203F8124C6A7004A374EB11
:104C5300F0901B19E0A2E25003C2E2F0E0A2E1509F
:104C630003124C7B024B4AEAFEEBFF7901120F80E1
:104C73008E828F83E0642022C2E1F0124C82227A7A
:104C8300008E828F83A3E0F91224EC2274F71203BF
:104C9300F8124CBB8E828F83A3A3A3A3E06004749A
:104CA30000800274EB124BC95003C2E2F0E0A2E1B0
:104CB3005003124CCC024BC0EAFEEBFF7901120FFA
:104CC300807AFC7B1A1226AE22C2E11261EDE0A2C9
:104CD300E4E433FA124C842274F71203F8124CF80A
:104CE30074EB124BCE5003C2E2F0E0A2E150031288
:104CF3004C7B024B4AEAFEEBFF7901120F808E8256
:104D03008F83A32274F71203F8124D1D024B4374D1
:104D1300F71203F8124D1D024B4AEAFEEBFF7AFC31
:104D23007B1A1226AEEEFAEFFB1225462274F71217
:104D330003F874EF12095BEAFEEBFFEA125CAB7A4D
:104D4300BF7B041212D4E9605685188285198374D7
:104D530009F07401120B8374EFF0124DB674021252
:104D63000B83EC124E05A3A3E0C0E07404120B8383
:104D7300D0E0124DF2640870158E828F83A3A312C4
:104D83004DDEE0C0E07405120B83D0E080067405AD
:104D9300120B83E4125B477406120B83124DA77444
:104DA300110238F5AA82AB831225EEAA18AB1912A9
:104DB30019FA22124DC3F583124DD5FCA3E0F92253
:104DC300EE124DCBFB8882222402F8E43FF9E8FA85
:104DD300E92212453A8882F583E022124DED240739
:104DE300F582E438F58322901ABB12453AC82212A1
:104DF3004DF622124DFBE022F08E828F83A3A3A3F4
:104E0300A322125DD7124E0C22124E1022E0F8A3F9
:104E1300E0F5838882A3A322C082C08312263002D6
:104E2300465FC082C083901B3674D6F0A3741AF019
:104E3300A374F2F0A3741AF0901C857417F0A37492
:104E43002CF0A374B5F0A3742BF0901B2274E0F044
:104E5300A37424F0901B1FE04401024163C082C08D
:104E630083EAFCEBFD790212259402465F74F61285
:104E730003F874FE12095B901B1B124EBE60077A87
:104E83001B7B1B1225AC901B21E4F0901790124E54
:104E9300BE60208007AA18AB191225AC901B1AE03C
:104EA300F912115A8B09A909851882851983123BB6
:104EB3001670E27402025E5A901ABB1264ADE8499E
:104EC3002274F71203F8E9FA7B00901B1AE0F91237
:104ED3001184024B4A74F71203F874F012095BEA67
:104EE300FCEBFDE9FE8A828B83E0F87494124FF3A6
:104EF300342EF583E493C0E07401120B83D0E0F009
:104F0300640B700DE98A828B83A3F0122612024F81
:104F1300EEE07003024FEE640C6003024FDF741A7D
:104F23006E700B7404120B83E4F0A3024FDE74045F
:104F3300120B831252A2EA24321257ABC0E074035D
:104F4300120B83D0E01261D8120B547406120B8338
:104F5300120B488C828D83A3A3A3A3A3A3A3A3A310
:104F63001264A9740A120B83E8F0A3E9124FF8E064
:104F730054106009851882851983E48013EC241288
:104F83001257ABF89004DBE0C39885188285198328
:104F9300F0E0C0E0740C120B83D0E0F0EC241512A7
:104FA30057ABC0E0740D120B83D0E0F0EC24161263
:104FB30057ABC0E0740E120B83D0E0F0EC24171251
:104FC30057ABC0E0740F120B83D0E0124FF8A3E08D
:104FD300540160087401120B837411F07402120BF4
:104FE30083EEF074011209331219FA74100238F5C2
:104FF30028F582E422F0EC1250013DF58322240EC1
:10500300F582E422C082C083901B21E06403700414
:1050130079018002790002465F74F71203F8901B4E
:1050230021E0125097748328F582741C39F583129A
:105033005529C2E7F012509EA3E493FE25E0FCE459
:1050430033FD74832CF582741C3D1258B5EC4D600E
:1050530005EE901B21F08A828B83E025E0FCE4338C
:10506300FDE82CF582E93DF583E493FCC4540F2558
:10507300E0F87430124FF3341BF583124EBE700503
:10508300122600800CEC540F12509E1245B71228C2
:1050930027024B4A25E0F8E433F92225E0FCE82C0B
:1050A300F582E439F5832274F21203F874FE1209CF
:1050B3005B890B8A088B0912514912513A601A1203
:1050C3005B54F50A780812089112515624021258BB
:1050D300AB1208A81250E28003125168023545AAA8
:1050E3000CEFFB901B1AE0F912114E2274F012031D
:1050F300F874FE12095B890B8A0E8B0F125149F566
:105103000812513A6027125B54A808EA28123E3865
:10511300850E08850F09F50A780812089112515671
:105123001258A91208A81250E2790080051251689A
:10513300791A7402022F32FA7B001211428A0C8B05
:105143000DAF0DEA4F22745D29F582E4342EF58309
:10515300E49322A80B7473124FF3342EF583E49374
:10516300FC7D00EA22851882851983E50BF0791A04
:10517300AA18AB1912257C22C082C083E9901B1A9E
:1051830002416374F61203F874FE12095BEAFEEB44
:10519300FFEA542070308039A8A8C2AF901ABAE051
:1051A300141240908A828B8312528F901B1D1252CD
:1051B300A2122588851882851983E0641560077A11
:1051C3001D7B1B1225AC7AB47B1A12116CEA4B704F
:1051D300C7EF5480700C8016901B1DEAF0A3EB12EE
:1051E30052B5901B1AE0F912115AEA4B70EAEE54C9
:1051F30010600B851882851983742D1252C1EEA29B
:10520300E0500B85188285198374241252C1EE5421
:1052130002600B85188285198374251252C1EE54DE
:1052230004600B85188285198374261252C1EE54CB
:1052330008600B85188285198374281252C1EE54B5
:1052430040600D7401120B831252A8742C1252C1C8
:10525300EE5480600D7401120B831252A8742F1246
:1052630052C1901B1B124EBE601BA8A8C2AF901B5D
:105273001B1244EB901B1BE4F0A3124090A3EAF033
:10528300A3E91252B57A007B00024EB61252932262
:10529300E0851882851983F022A3A3A3A3A3A3EA1D
:1052A300F0A3EBF022E41252AD22F08518828519A7
:1052B3008322F01225887A1D7B1B1225AC22123D16
:1052C300DC12258822C082C083901B1D125F1768E1
:1052D3007002EB697007901B1DE4F0A3F002465FB8
:1052E30074F71203F8EAFEEBFFEA4F7003120C8C1B
:1052F300A2AFE433F508C2AF8E828F83124EBE6035
:1053030028E824FBFAE934FFFB901B1D1258B7E889
:105313006C7002E96D7007901B1DE4F0A3F08E82A0
:105323008F83E4F0A3F01211F6023761C082C083C9
:10533300901B4474F4F0A37425F0A37406F0A374D3
:1053430026F0A3740CF0A37426F0A374C2F0A37424
:1053530024F0A37412F0A37426F0A374BCF0A37416
:1053630024F0A374C8F0A37424F0901B527442F089
:10537300A37426F0A37418F0A37426F0A3741EF08C
:10538300A37426F0A3742AF0A37426F0A37424F064
:10539300A37426F0901B43E4024163C082C0839050
:1053A30004C8E064FE7003A3E0F470097CBF7D04CD
:1053B3001212DA801C8A828B83A3A3A3A3A3A3A3C1
:1053C300A37402F09004C81264A98A828B831247E3
:1053D3003F02465FC082C0839004D2C3E094FEA321
:1053E300E094FF400479038002790202465FC082A1
:1053F300C0831255328C828D831254E768703974DE
:105403000268701C8A828B83125440E06870298A78
:10541300828B83A3125440A3E068701C7901801A25
:105423007403687013EC2405FC50010DEA2405FA9B
:1054330050010B1212E08002790002465FA3A3A37E
:10544300A3A3E0F88C828D83A3A3A3A3A32274F662
:105453001203F87E00740A120B83E01254DBFF8AF6
:10546300828B83A3A3A3A3A3A3A3A3E06F706474FA
:10547300026F704E8A828B83C082C0838882898345
:10548300A3A3A3A3A3E0F50888828983A3A3A3A36B
:10549300A3A3E0FBAA08D083D082E06A7003A3E051
:1054A3006B703088828983A3A3A3E0FA88828983FF
:1054B300A3A3A3A3E0F9EA6C7002E96D70157E0162
:1054C300801174036F700CE82405FCE439FD12129B
:1054D300E0E9FEEEF9025E5DF8A3E0F98882F58368
:1054E3001254E722A3E01313543F540322C082C093
:1054F300838A828B83A3A3A3A3A3A3A3A3E06402AE
:1055030070169004C8125529687003A3E0697004EB
:105513007901800F7900800BEAFCEBFD7ABF7B04F5
:105523001212D402465F1264AD8A828B83E0228A10
:10553300828B831254E7F82274F01203F874FC127E
:10554300095BE9851882851983F07402120B83ECD9
:10555300F0A3EDF08A0A8B0B7508007402120B831B
:10556300E024081257ABC0E07401120B83D0E012A1
:1055730057FBA2E75008750EFF750FFF800A9004D2
:10558300CEE0F50EA3E0F50F851882851983E0C2FE
:10559300E7125800542060071257CD740880041294
:1055A30057CDE4125800540460071257D874808012
:1055B300051257D87410125800541060061257B3CE
:1055C300E4800B9004DBE0C0E01257B3D0E0125844
:1055D30000A2E050037508205408600674104508C3
:1055E300F5088A828B83A3A3E024FFFEA3E034FFA4
:1055F300FFEA1257BEC39402E0400F640B6009E058
:10560300148E828F831257F174034508F5087509C8
:10561300009004EEE0640170118A828B83A3A3A33C
:10562300A3E0C39467400375091085188285198325
:10563300E0F50C750D00740E780C120A74E50D4537
:1056430009F509E06402701B9004D3E08E828F8316
:10565300F09004D2E0C0E01234BCD0E0F0EE24FEBF
:10566300FE801CE06403701DEE24F9FEEF34FFFF9F
:105673007CE27D04EEFAEFFB1212E6EE24FF1EEF4E
:1056830034FFFF8003E0602F7401120B83E0601886
:105693007414120B83E0650E7004A3E0650F7008A9
:1056A30074404508F508800F8E828F83E50FF01252
:1056B30034BCE50E1257E77401120B83E0F50C7549
:1056C3000D00740A780C120A74E50D4509F509E01A
:1056D300640270237402120B83125F128E828F8313
:1056E300F07402120B831235EEC0E01234BCD0E02A
:1056F300F0EE24FEFE8020E064037021EE24F9FE28
:10570300EF34FFFF7402120B831258B7EEFAEFFB6C
:105713001212E6EE24FF1EEF34FFFF8003E0601C4D
:105723007414120B83A3E08E828F83F07414120B14
:1057330083E0C0E01234BCD0E01257E7EEF8EFF993
:10574300E824FF1EE934FFFFE50A1257BE700590F7
:1057530004BE80039004CAE0FA04F0EA88828983D5
:10576300125CBFE5091257F18E82F583E508F0E577
:105773000A2404F8E4350BF9E50A2402FAE4350BAC
:10578300FBEEFC8A828B83E0F50888828983E0251F
:1057930008C39C125DDAEEF0A3EFF0850A82850B55
:1057A30083A3E4F0F9022F30F582E43DF583E02290
:1057B300EA2412F582E4350BF583221257C7350B21
:1057C300F583E022240DF582E422EA2410F582E435
:1057D300350BF58322EA1257E1350BF583222411A9
:1057E300F582E422F0EE24FEFEEF34FFFF22F0EE1A
:1057F30024FF1EEF34FFFF221252ADE022F0EA1223
:105803005001350BF583E02274F11203F874FE1294
:10581300095B851882851983ECF0A3EDF0890B8A67
:105823000E750A1A7415120B8312673C1224628ACE
:105833000C8B0DAE0CAF0DEA4F605A7413120B8331
:10584300125F17125916F0A3E9124926E50BF075FA
:105853000A0078081208917C0B7D00EA1258A912FD
:1058630008A87411120B831207207402120B8312FF
:1058730058B7A90E1234B21208A8E9F50A7016E552
:105883000B24F960031470061236F4D2E5F0EEFA35
:10589300EFFB1224B6A90A74021208A87F070206B6
:1058A3000D7C0B7D00EE241BFAE43FFB12111E74EA
:1058B3000322F583E0FCA3E0FD2274F61203F874DF
:1058C300F712095BEAFEEBFF7801EA2432124A3C45
:1058D30060027805EA1259161249237404125CB265
:1058E300AA18AB191212DAEE242F1248F924311236
:1058F300591B120895740212093B79031A1A1234C0
:10590300B41208A8E9F5087007EEFAEFFB1224B603
:10591300025E561230BCE822F582E43F1230AF1229
:105923004DF604F078082274F21203F88A088B0902
:10593300ECFEEDFF8A828B837405F0EC125D4B1253
:10594300609FF0EA2403F50AE43509F50B850A8222
:10595300F583E0F50CA3E0F50DEC2425F582E43F97
:10596300F583120B54E50C1257E1350DF583120B39
:1059730048EC125CABAA0CAB0D1212DA850A8285D5
:105983000B831267BC125B10125B3312529CEE2422
:105993002F124A3CC0E0125B19D0E0125B5F241562
:1059A300F582E438F583E4125B5F124510E4125B81
:1059B30047850A82850B83E02416FAA3E03400FBB3
:1059C3001225EE8E828F83A3A3A3A3A3A3A3E0C078
:1059D300E0850A82850B831243551257C738F58336
:1059E300D0E0125B3EFAA3E0FB850A82850B8312AB
:1059F30064A9E8240BFCE439FD8A828B83E08C8262
:105A03008D83125B5A8A828B83A3E0F50B8C828D84
:105A130083A3E0450B125DD2A3E0FCEA2403FA5012
:105A2300010BECA2E7E433C0E0E8240FF582E4398C
:105A3300F583D0E0F074075C60047801800278009D
:105A430075F00374075CA428F8EA28FAE43BFBE545
:105A5300082405F8E43509F98A828B831230B112E0
:105A63005DD2AA82AB8385088285098312529C8802
:105A7300828983E0F50A25E0540EFCE50AC4540F3D
:105A8300F50A750B007403780A120A74E50A543890
:105A9300F8EC28F8EA28F8E43BF9850882850983BD
:105AA300A3A3A3A3A3A3A3A3A3E8F0A3E9124DF283
:105AB300FA8E828F83A3A3E02AFAA3E03400FBC308
:105AC300EA98EB9940288E828F83A3A3E0F8850898
:105AD30082850983A3A3A3A3A3A3A3A3A3125B27E1
:105AE300C39A28850882850983A3A3A38016850802
:105AF30082850983A3A3A3A3A3A3A3A3E4F0850897
:105B030082850983A3A3A3A3A3F002354A242BF51B
:105B130082E43FF58322125B1D22E82410F582E420
:105B230039F58322E0FA8E828F83A3A3A3A3E02215
:105B33001244EF88828983A3A3A322F08E828F83EA
