:020000040000FA
:06000000020AFE02024D9F
:03002B000208F8D0
:030033000206BF03
:0300530002018225
:03006B00020699F1
:100083000201E1010000000000F8FF07FFFF00008C
:10009300070400000003000147726F757000FF043E
:1000A30000100020FD0002000040100000000000CE
:1000B30000A0100000000000001C10000000000061
:1000C30000000000002810000000000000000000F5
:1000D30000000006FFFF1E01D21400000000000014
:1000E300000000000000000000000000000000000D
:1000F300102020202020202020202020202020200D
:1001030020010104010C000102DA8102DE810104F5
:1001130000001F18000000E8030000FFFF9918010A
:1001230088130000E803000064006400B801A0BB6A
:100133000D00A0BB0D0002020207040101051E020F
:10014300051E020A0A0101010809080103B80B028E
:10015300803E0102FEFFE8030A050001FFFF010ADA
:100163001401E00105030101FF0F10FEFFFF2A0048
:10017300000000972A00000000FF000000FF00C0FD
:10018300E074F1120464A2AFE433F509D2AF85A79A
:1001930008AFA1EF5508FE74105E6006120DA0753E
:1001A300A1EF74085E6008120DA675A1F78024EF15
:1001B300A2E092F0E508A2E082F05017906198E087
:1001C300F89004A1E0C398A2D265D0335002E8F0BE
:1001D30075A1FEE509A2E092AF7F020204C3C0E06D
:1001E30074F2120464A2AFE433FED2AF9061A4E0D0
:1001F300F8759B00E59158540860087591F7120D46
:10020300F48023E59158541060087591EF120DFAAC
:100213008014E591A2E092F0E8A2E082F05007E0BA
:10022300C2E0F0120F509061A3E0F8E5E9585404DE
:10023300600E120F2675E9FB906193E0A2E640F28F
:10024300EEA2E092AF7F010204C3C0E074F2120495
:1002530064A2AFE433FED2AF9061A5E0F8E5BF58E6
:100263005404600675BFFB120F6880D4C3E498F88A
:10027300E499F91202B08026C3E49AFAE49BFBE9FD
:1002830020E7E91202B0E498F8E499F922C3E4986C
:10029300F8E499F91202B0E498F8E499F9C3E49AFE
:1002A300FAE49BFB22EB20E7CFE920E7E0B900105B
:1002B300BB0008E88AF084F8AAF022E4FBC8FA221B
:1002C300EB70227B10C833C8C933C9335007C39AB4
:1002D300C3DBF280069A50012ADBEAC833F4C8C9AB
:1002E30033F4C9FA2275F008E4C833C8C933C933F3
:1002F300C99AC99B5004C92AC93BD5F0ECFBC83342
:10030300F4C8E4C9FA22080808EAC0E0EBC0E086B2
:10031300F0E7A4FA180986F0E7A42AFA180986F088
:10032300E7A42AFA180986F0E7A42AFA1986F0E75F
:10033300A4FBE5F02AFA190886F0E7A42BFBE5F005
:100343003AFA190886F0E7A42BFBE5F03AFA1818F5
:100353000986F0E7A4C5F02BFBE43AFA1908E7C5D0
:10036300F0C6A426F6E5F03BFBE43AFA1886F0E77C
:10037300A4F6E5F00826F6E43B08F6E43A08F6D0DE
:10038300E0FBD0E0FA22E4CFC0E0E4CEC0E0E4CD6D
:10039300C0E0E4CCC0E075F020E626F608E633F6CC
:1003A30008E633F608E633F6181818EC33FCED3399
:1003B300FDEE33FEEF33FFC3EC9709ED9709EE979C
:1003C30009EF97191919400FFFEC97FC09ED97FDF9
:1003D30009EE97FE191906D5F0BFECF709EDF709F9
:1003E300EEF709EFF7191919D0E0FCD0E0FDD0E0E2
:1003F300FED0E0FF222518C582C0E0E51934FFC511
:1004030083C0E0E518C3958224F810AF08858319EB
:100413008582188008858319858218D2AFCEF0A310
:10042300E520F0A37808E608F0A3DEFAEFF0A3E5F1
:100433008124FAF8E608F0A3E608F0A3E608F0A39F
:100443000808E608F0A3E608F0A315811581D0E0BB
:10045300FED0E0F8158115811581E8C0E0EEC0E01B
:1004630022C0D02518C582C0E0E51934FFC583C07A
:10047300E0E518C3958224F310AF088583198582BC
:10048300188008858319858218D2AFC8F0A3E9F0D4
:10049300A3EAF0A3EBF0A37908E709F0A3D8FAECF9
:1004A300F0A3EDF0A3EEF0A3EFF0A3D0E0F0A3D020
:1004B300E0F0A3D0E0F0A3E520F0A3E5F0F0A32261
:1004C300851983851882E0C0E0A3E0F9A3E0FAA3CD
:1004D300E0FBA37808E0F608A3DFFAE0FCA3E0FD65
:1004E300A3E0FEA3E0FFA3E0C0E0A3E0C0E0A3E03D
:1004F300F5D0A3E0F520A3E0A3F5F010AF088583C2
:10050300198582188008858319858218D2AFD08215
:10051300D083D0E0F8D0E032120B78B900030205A3
:100523005AE4900401789679188002F0A3D8FCD994
:10053300FA7A967B1B90008678FD79018015E49307
:10054300A3AD82AE838A828B83F0A3AA82AB838D11
:10055300828E83D8E9D9E775824E75839D7406121E
:10056300086F758228758328740012086F75F01060
:100573008E1A8F1B85821F85831E8518828519839A
:10058300E0CEA3E0CF851F82851E83EBC9EAC8EDC9
:10059300CBECCAC3E833C8E933C9EA33CAEB33CB7C
:1005A300C3EA9EF51DEB9FF51CB35004AB1CAA1DBB
:1005B300EC33CCED33CDD5F0DAAE1AAF1B22D083BA
:1005C300D082ECC0E0EDC0E0E493A3FCE493A3FD90
:1005D300ED4C600D1206DDEC24FFFCED34FFFD80D5
:1005E300EFE493A3FCE493A3FDED4C600D12077AB3
:1005F300EC24FFFCED34FFFD80EFD0E0FDD0E0FC08
:10060300E493A3C0E0E493C0E022851983851882B4
:10061300E0A3FEE0A3F5207808E0A3F608DFFAE004
:10062300A3FFE0A3C0E0E0A3C0E0E0A3C0E0E0A339
:10063300C0E0E0A3C0E010AF08858218858319806D
:1006430008858218858319D2AFD083D082020875BA
:10065300D083D082E9C0E0E493A3C386F0C5F095CC
:10066300F0F908E493A386F0C5F095F0700BE493DA
:10067300A3C3994005E9048002A3E475F002A4250D
:1006830082F582E5F03583F583D0E0F9E493A3C0E6
:10069300E0E493C0E022C0E074F2120464A2AFE489
:1006A30033FED2AFE589A2E15003120CE075890055
:1006B300C2C5EEA2E092AF7F010204C3C0E074F2B0
:1006C300120464A2AFE433FED2AFE58BA2E0500381
:1006D300120CE0758B00C2E880D8C0E0C3E49396A7
:1006E300087401939618400FE49366700808740128
:1006F30093661870007019A3A3C3E493960874015A
:10070300939618A3A3400DD0E0D0E0D0E00205FDFE
:10071300A3A3A3A3A3A3D0E0227404800474028040
:1007230000CCC0E0EDC0E0E518C39CCCAD1950018E
:100733001D10AF068C188D1980068C188D19D2AF39
:100743001207F1D0E0FDD0E0FC2274028000CCC09F
:10075300E0EDC0E0E518C39CCCAD1950011D10AF0E
:10076300068C188D1980068C188D19D2AF1207CFFD
:10077300D0E0FDD0E0FC22C0E0C0F088F0E4936656
:1007830070080874019366187000A8F0A3A3700B97
:10079300D0F0D0E0D0E0D0E00205FDA3A3D0F0D0AC
:1007A300E022D083D082CCC0E0E493A36006120899
:1007B300121470FAE493A360061209711470FAD04C
:1007C300E0FCE493A3C0E0E493C0E022CAC0E0E409
:1007D30093A3C582CCC582C583CDC583F0A3C5824F
:1007E300CCC582C583CDC583DAE5D0E0CA22CAC0B1
:1007F300E0E0A3C582CCC582C583CDC583F0A3C584
:1008030082CCC582C583CDC583DAE6D0E0CA22C0D7
:10081300E0E493A3D39C5010E493A3C39C400AD079
:10082300E0D0E0D0E00207C2A3A3A3D0E022C00837
:10083300C3E096F50808A3E096420808A3E09642B1
:100843000808A3E09645087001D3D0082270090870
:100853000808226016181818C6C333C608C633C65C
:1008630008C633C608C633C6D5E0EA22C09FF59F43
:10087300E473D09F22D083D082C09FE493C0E074FE
:100883000193C0E0740293F59F227404800A7403F9
:100893008006740280027401C0E0F4041208C3D01D
:1008A300E0120B3B2200C0D0251810AF08F51850FA
:1008B3000C05198008F51850020519D2AFD0D022C3
:1008C3002518F58210AF08F518400C15198008F5A6
:1008D3001840021519D2AF85198322BB0102E72202
:1008E300C082C08389828A83BB0003E08002E493D1
:1008F300D083D08222C0E0C0D0E8C0E0A8A8D2AFA5
:10090300C2C7E8A2E792AFD0E0F8D0D0D0E032601F
:1009130016080808C6C313C618C613C618C613C6D6
:1009230018C613C6D5E0EA222518F8E43519F922CA
:100933002518FAE43519FB222518FCE43519FD22A4
:10094300C3E0C696F608A3E0C696F608A3E0C696EB
:10095300F608A3E0C696F622251810AF08F518404E
:100963000C15198008F51840021519D2AF22C0E002
:10097300E493A36C7009D0E0D0E0D0E00207C2A3F7
:10098300A3D0E022E066701008A3E066700A08A313
:10099300E066700408A3E06622C3E09608A3E0962D
:1009A30008A3E09608A3E096A2D265D03322E766B7
:1009B30070100809E766700A0809E76670040809F9
:1009C300E76622C3E697F60809E697F60809E6976D
:1009D300F60809E697F622C3E49396087401939602
:1009E3000874029396087403939622C3E096F00862
:1009F300A3E096F008A3E096F008A3E096F022E6C1
:100A030057F60809E657F60809E657F60809E657C0
:100A1300F622E026F608A3E036F608A3E036F60849
:100A2300A3E036F622E493F608740193F608740201
:100A330093F608740393F622E056F608A3E056F6FD
:100A430008A3E056F608A3E056F622E056F008A302
:100A5300E056F008A3E056F008A3E056F022E6477C
:100A6300F60809E647F60809E647F60809E647F6F1
:100A730022700422600D18C6C333C608C633C6D518
:100A8300E0F41822E627F60809E637F60809E63700
:100A9300F60809E637F622E026F008A3E036F00868
:100AA300A3E036F008A3E036F022E4C396F608E4A8
:100AB30096F608E496F608E496F622600D08C6A2B8
:100AC300E713C618C613C6D5E0F322C6F4C608C694
:100AD300F4C608C6F4C608C6F4C622C3E7960809D6
:100AE300E7960809E7960809E79622C3E09608A364
:100AF300E09608A3E09608A3E0962275D0007581DE
:100B03003F7518017519040002051BE6F008A3E6FA
:100B1300F008A3E6F008A3E6F022600C08C6C313AE
:100B2300C618C613C6D5E0F422E0F608A3E0F6081B
:100B3300A3E0F608A3E0F622CAC0E0E6F0A308DAD1
:100B4300FAD0E0FA22E8F0A3E9F0A3EAF0A3EBF08D
:100B530022E0F8A3E0F9A3E0FAA3E0FB22EAF0A382
:100B6300EBF0A3ECF0A3EDF022E0FAA3E0FBA3E0AB
:100B7300FCA3E0FD22E5C754F84401F5C77901223F
:100B83002518F582E43519F58322C2AF75D69F0285
:100B9300000022120878E8CE05120878B2CF0512B9
:100BA30008789ED0051208783CD10512087857D1F1
:100BB30005120878C1D105120878CBD1051208783F
:100BC300D5D10512087872D20512087830D30512F0
:100BD300087891D405120878E8D40512087820D54E
:100BE300051208788BF10112087807F201120878D0
:100BF3003AF20112087868F20112087882F40112BD
:100C030008789EF401120878E3F40112087868F575
:100C130001120878B4F50112087844F60112087835
:100C23001CF7011208786DF701120878D2F7011248
:100C330008784FF80112087885F801120878D0F87F
:100C430001120878F6F80112087886F9011208787B
:100C53001DFA0112087869FA011208789AFA01124A
:100C63000878D1FA0112087862FC011208782CFD89
:100C73000112087806FE0112087832AE06120878CF
:100C830043AE06120878E1AE06120878F9AE0612F2
:100C93000878F8FF01120878E9FF0512087858B0C0
:100CA3000612087868B00612087880B00612087831
:100CB300E8B00612087845AA06120878C8AA0612F0
:100CC30008782EAB0612087880FE051208789FFE7E
:100CD300051208780CFF0512087851FF05120878F1
:100CE300AAFF05120878E2A706120878F7A70612EA
:100CF30008786BA80612087885A8061208789CA8BD
:100D030006120878AAA806120878C2A8061208785C
:100D1300E0A8061208780D8C061208781B8C0612C0
:100D23000878948C06120878688D061208783A8F32
:100D3300061208780CB2061208781AF00512087821
:100D430046F005120878B7F205120878F7F2051293
:100D5300087837F3051208784BF30512087864F323
:100D63000512087855F405120878FAF40512087884
:100D73000EF50512087809A4061208782DA40612A8
:100D8300087846A40612087878A406120878A8A45E
:100D930006120878D5A40612087837A50612087833
:100DA30046A50612087850A5061208785DA5061216
:100DB30008785B7D001208787B7D00120878BA7D85
:100DC30000120878D57D00120878F47D00120878A7
:100DD3005A7E00120878637E00120878C07E0012E3
:100DE3000878CF7E00120878F37E00120878B47F6B
:100DF30000120878C17F00120878D27F00120878A9
:100E030045B1061208785DB10612087889B1061259
:100E13000878428006120878968106120878A48121
:100E230006120878B78106120878CC810612087872
:100E3300E18106120878F4810612087868820612A6
:100E43000878CD82061208786F83061208783384F7
:100E5300061208784384061208785284061208782A
:100E6300BFAF06120878E3AF061208780BB006127C
:100E7300087833B006120878C79806120878EE98F7
:100E8300061208780C99061208787F9906120878DA
:100E93002493061208783D930612087849930612A4
:100EA30008785D93061208787B9306120878859379
:100EB300061208788F9306120878A2930612087810
:100EC3002C9406120878A19406120878D594061279
:100ED30008782395061208787095061208788B9582
:100EE30006120878959506120878BB9506120878BD
:100EF30020960612087808AF061208782AAF061261
:100F03000878BBB2061208789CDF05120878C6DFA2
:100F130005120878E3DF05120878F6DF0512087872
:100F23000CE0051208786AE005120878A2E00512C1
:100F330008789AE405120878DFE50512087812E6C6
:100F43000512087875E605120878EEE705120878A9
:100F530016E8051208782BE8051208783BE8051215
:100F630008787FE805120878DAE805120878EAE8D5
:100F73000512087815A9061208782FA90612087811
:100F830057A90612087870A90612087894A90612C0
:100F93000878B2A906120878C9A906120878F7A931
:100FA3000612087812AA06120878BCFF0412087801
:100FB3009F8F06120878AF8F06120878B490061236
:100FC3000878E69006120878169106120878399187
:100FD300061208785091061208788A91061208784A
:100FE300EF91061208783192061208787092061271
:100FF3000878A19206120878CC9206120878ABA65C
:1010030006120878C9A6061208782EA706120878D1
:10101300CDA70612087842AD06120878DFFE01124A
:10102300087825FF01120878FFA00612087856A257
:101033000612087867A5061208788BA606120878A8
:1010430066D505120878DBD805120878D1DA0512BF
:101053000878FFDB05120878DCDC0512087857DE18
:101063000512087823DF0512087877DF0512087860
:101073003D9F061208785E9F0612087898A0061214
:101083000878C2A006120878D1B106120878E1B137
:1010930006120878EBB106120878E9E7041208781B
:1010A300ECE70412087822EF041208785CF00412CB
:1010B3000878AFF10412087867F2041208784EF347
:1010C3000412087837F4041208782FF5041208780C
:1010D300E1F50412087811F604120878CBF704122C
:1010E3000878A5A206120878C5A206120878D9A323
:1010F30006120878DCA30612087847AC06120878B3
:101103007DAC0612087893AC06120878D5AC0612AB
:101113000878E5AC06120878F4AC0612087838AD06
:1011230006120878B2F804120878ECF8041208786A
:1011330055F90412087872F9041208788BF904122D
:1011430008782DFA0412087836FA041208787BFA24
:1011530004120878A4FA04120878B1FA0412087881
:1011630022FB04120878ADFB04120878FBFB04127F
:10117300087839FC041208789EFC04120878C1FC34
:101183000412087838FD041208788FFD04120878D9
:10119300CAFD04120878FFFD0412087811FE041238
:1011A300087823FE0412087842FE041208784BFEE6
:1011B3000412087806FF0412087852FF0412087814
:1011C30090FF0412087822F50512087862F60512DA
:1011D300087885F60512087896F60512087895F8CA
:1011E30005120878B5F805120878189B06120878D6
:1011F3004E9B06120878969B06120878EF9C0612FF
:101203000878EBB006120878966900120878BA6A73
:1012130000120878F46A001208789E6C00120878AD
:10122300C86C001208783D6F001208787D6F0012B9
:101233000878137100120878B071001208780272EE
:1012430000120878A57200120878DD72001208787F
:101253001F73001208788E7400120878DC75001270
:1012630008780D78001208783B78001208786278C5
:10127300001208786B7800120878C2780012087898
:10128300547900120878817C00120878047D0012DA
:1012930008789BB206120878B1B206120878F8FBF8
:1012A300031208780EFC03120878B2FC03120878C4
:1012B300F1FC031208780EFD031208783FFD0312B8
:1012C30008788CFD03120878BFFD03120878FAFD35
:1012D30003120878EFFF0312087847AB0612087869
:1012E300A6AB06120878E4AB0612087825AC061202
:1012F30008788CB10612087898B106120878A3B161
:10130300061208780080041208780C80041208780A
:101313006E80041208787880041208780981041218
:1013230008784581041208780082041208786182E3
:1013330004120878CC82041208783B8304120878DC
:10134300BB83041208785285041208782787041295
:101353000878638804120878C68904120878798AA1
:1013630004120878358F041208782A90041208783A
:10137300BF9004120878E490041208788091041254
:101383000878959104120878B991041208782A9282
:1013930004120878479204120878719204120878AC
:1013A300079404120878289404120878CE9404123F
:1013B30008781595041208787A9504120878FB9535
:1013C300041208785F9604120878BB960412087812
:1013D300519704120878C49704120878F8970412F6
:1013E30008785B9804120878BB9904120878529B1A
:1013F30004120878FF9B04120878649E041208788C
:10140300CD9E04120878F79E0412087822A10412D4
:101413000878ADA304120878A8A40412087897CA20
:101423000412087826CB041208789CCB041208789F
:101433007BCC0412087876CD04120878F3CD04121D
:10144300087831CF04120878CCCF04120878A3D1DE
:101453000412087892D204120878AFD204120878E2
:10146300D2D30412087813D504120878B5D5041220
:101473000878E7D804120878E3DA041208786DDBF9
:1014830004120878C7DB0412087815DC0412087804
:1014930090DC041208780DDD041208784EDD041286
:1014A3000878CCE3041208781DE604120878F4E601
:1014B300041208782B9606120878B4960612087858
:1014C300E297061208780798061208782F980612F2
:1014D30008783298061208783B98061208783E98E6
:1014E3000612087870B2061208782AE40212087805
:1014F3005CE402120878D8E40212087826E60212A5
:1015030008780CE702120878CEE802120878F3E8AC
:101513000212087845E902120878C7E9021208782E
:101523000EEA0212087821EA0212087878EA021217
:101533000878D1EA0212087897EB0212087803ECD4
:10154300021208782DEC0212087876EC0212087861
:10155300FBED02120878D4EE0212087823F002128F
:10156300087804F1021208788CF102120878CFF19E
:1015730002120878E9F10212087830F202120878B0
:1015830050F2021208780BF30212087818F40212D0
:1015930008782CF40212087880F402120878DAF43E
:1015A300021208782BF50212087827F6021208783F
:1015B300A1F802120878C0F80212087835F902126D
:1015C30008785AF902120878D7F9021208789DFAB6
:1015D30002120878DAFA0212087853FB021208782A
:1015E30047FC021208784AFC0212087854FC0212E3
:1015F30008785EFC0212087871FC02120878EDFC90
:101603000212087823FD0212087836FD02120878C8
:1016130062FD0212087889FD02120878ADFD0212FC
:101623000878E8FD021208785AFE0212087882FE52
:10163300021208788CFE02120878C8FE021208789B
:10164300E2FE0212087807FF0212087835FF021241
:1016530008784BFF0212087863FF0212087875FFBF
:1016630002120878A8FF02120878C0FF0212087855
:10167300F5FF011208781AE90512087869E90512DD
:10168300087809EB05120878C4EC0512087806ED12
:1016930005120878EFED05120878F9EE05120878BF
:1016A3001BEF0512087865EF05120878E6EF0512BF
:1016B3000878CBD903120878EED90312087859DBDE
:1016C30003120878A2DB03120878FCDB0312087804
:1016D30062DC0312087865DC03120878B1DC0312BC
:1016E30008782BDD03120878BCDD03120878BFDD10
:1016F3000312087851DE0312087894DE0312087887
:10170300FDE2031208788DE403120878C0E40312A3
:1017130008781BE50312087878E803120878EDE8E7
:10172300031208788BEA0312087890EB0312087807
:10173300B2EC0312087824ED0312087800EE0312CA
:1017430008788EEE0312087891EE031208786BEF97
:10175300031208789FF00312087851F203120878F5
:1017630000F403120878B6F40312087859F503124B
:10177300087845F603120878F1F7031208780AF996
:101783000312087863FA03120878B0FA0312087890
:1017930045FB03120878008005120878A080051223
:1017A30008780A8105120878238105120878B28126
:1017B30005120878F681051208780A83051208785D
:1017C300468305120878CC8305120878178405121E
:1017D300087876840512087881850512087896883A
:1017E30005120878C88905120878498A051208780D
:1017F300488C05120878ED8C05120878908D051237
:101803000878EF8D05120878648E05120878B08F7A
:10181300051208787B9005120878B19005120878B4
:10182300CE9005120878749105120878C0910512BC
:1018330008784C9205120878CD93051208787C95A8
:1018430005120878CC96051208783898051208789E
:10185300489905120878EE9905120878579A0512E7
:101863000878769B05120878CCA80412087840A95A
:101873000412087888A904120878C6A90412087803
:1018830015AA041208785FAA0412087897AA04120A
:10189300087815AB041208786FAB04120878CBAC48
:1018A300041208785AAD0412087871AE041208784D
:1018B30099AE04120878DFAF04120878F0AF04126F
:1018C300087808B00412087812B104120878DCB161
:1018D30004120878E9B2041208780DB304120878E8
:1018E30024B30412087845B30412087867B30412CA
:1018F300087884B30412087860B404120878B8B482
:10190300041208784AB70412087899B704120878C1
:10191300B8B70412087897B804120878CDB804123F
:101923000878F7B00512087862BA04120878CFBABB
:10193300041208780BBB0412087874BB04120878ED
:101943002EBC04120878ECBD04120878EDBE041214
:10195300087872C0041208785DC204120878C0C403
:101963000412087866C60412087834C7041208788B
:101973009AC704120878B1C704120878A1C80412E0
:1019830008788DC90412087843CC051208784E886C
:1019930006120878F38906120878B08A06120878C6
:1019A300148B06120878888B061208788B8406122B
:1019B3000878A98406120878ED840612087813853E
:1019C30006120878398506120878518506120878B8
:1019D300698506120878CC85061208780E860612E9
:1019E3000878308706120878398706120878428704
:1019F300061208784B87061208785587061208786E
:101A0300EBF90512087806FE0512087814FE051294
:101A1300087819FE05120878CA9D0612087844B2A0
:101A230006120878008003120878328003120878BF
:101A33009E8003120878398103120878D881031233
:101A430008781D82031208783F82031208785882AF
:101A5300031208787E8203120878A08203120878A2
:101A6300DE82031208782283031208784483031268
:101A73000878A683031208786D84031208782485F6
:101A8300031208789685031208786886031208788B
:101A9300B286031208780587031208786B8703124E
:101AA3000878A58703120878F78703120878138844
:101AB300031208783E8803120878458A03120878CF
:101AC300998B03120878BB8B03120878EF8B0312F0
:101AD3000878108C031208781F8C031208782A8C5C
:101AE30003120878DA8C03120878438D03120878FE
:101AF300F08D03120878288E03120878EE8E0312F5
:101B03000878FB8F03120878459003120878D49065
:101B13000312087838910312087873910312087836
:101B2300DF93031208783395031208786C98031235
:101B33000878399903120878C79903120878F0993D
:101B430003120878629A03120878F69A0312087847
:101B5300549B03120878469C03120878689C03126E
:101B63000878C49D03120878DD9D03120878F09D60
:101B7300031208784D9E031208785C9E03120878BE
:101B8300EF9E03120878FB9F0312087808A0031244
:101B9300087811A003120878E9A1031208780FA3AB
:101BA300031208781FA30312087821A403120878EC
:101BB30098A403120878C7A403120878CDA50312CA
:101BC300087813A603120878DFA703120878B7ABC7
:101BD30003120878C1AB03120878D5AB0312087857
:101BE300DFAB03120878E9AB03120878F3AB0312F7
:101BF30008780CAC0312087816AC031208788AAC88
:101C03000312087895AC03120878BAAC031208786B
:101C1300C5AC0312087813AD031208781DAD031287
:101C2300087828AD031208784CAD0312087870AD1C
:101C330003120878CCAD0312087812AE03120878A9
:101C43002FAE03120878ACAE03120878E3AE03128A
:101C5300087822AF031208786FAF03120878F1AF48
:101C6300031208788AB0031208785AB2031208786C
:101C7300B8B203120878D4B303120878FAB3031284
:101C8300087839B5031208785FB803120878A0BA48
:101C9300031208787CBC0312087812BD031208787B
:101CA30039BF03120878E5BF031208781AC003127C
:101CB30008787FC00312087889C003120878B3C27A
:101CC30003120878DAC3031208781AC403120878D7
:101CD300C0C40312087851C603120878DAC7031286
:101CE3000878FAC70312087853C80312087855C94D
:101CF300031208789FC903120878EFC90312087802
:101D0300D9CA031208784ECB0312087868CC0312A1
:101D13000878E3CC03120878E8CD0312087893D04F
:101D230003120878B2D00312087813D2031208788A
:101D3300D5D30312087829D403120878E1D4031207
:101D4300087890D503120878E6D5031208789CD654
:101D53000312087831D7031208789DD70312087845
:101D6300D7D70312087808D80312087864D9031266
:101D7300087800800212087832800212087869809D
:101D83000212087852820212087835830212087808
:101D93008D8302120878C88402120878148502120F
:101DA30008783C88021208789E8B02120878EB8C24
:101DB30002120878818D021208788D8D021208783C
:101DC300BF8D02120878418F021208784F900212D9
:101DD3000878799002120878D09002120878299135
:101DE30002120878959102120878AC9302120878CF
:101DF3003B9502120878059602120878439702125F
:101E03000878739902120878439C02120878509C50
:101E130002120878D79C021208787F9D0212087874
:101E2300C29D021208780B9E021208785F9E02126E
:101E33000878C49E021208782C9F02120878499FE2
:101E430002120878799F02120878AE9F021208786E
:101E53007EA00212087827A102120878ABA302120F
:101E63000878CBA402120878B4A50212087836A623
:101E73000212087858AA0212087895AA0212087862
:101E8300EDAA0212087820AB02120878A1AB021265
:101E93000878EEAB0212087879AC02120878CBAC62
:101EA30002120878A2AD021208785BAE021208781B
:101EB300F6AE021208780FB2021208782FB302129C
:101EC3000878E0B602120878FEB70212087801B863
:101ED3000212087830B80212087836BA021208786B
:101EE3000FBB0212087844BB021208784CBC0212E2
:101EF300087802BD02120878A3BE02120878C8BE91
:101F03000212087807BF0212087879BF0212087814
:101F13005DC0021208782AC10212087860C3021257
:101F23000878D1C30212087811C4021208784AC48F
:101F330002120878DEC40212087827C60212087853
:101F4300EAC902120878D9CA02120878C0CB021271
:101F5300087838CC02120878FACC02120878F8CE46
:101F63000212087810CF0212087824CF02120878E0
:101F73005CCF021208788ACF0212087811D10212BC
:101F830008781CD2021208786ED202120878D6D2D0
:101F93000212087888D302120878B8D3021208789C
:101FA3009CD4021208784DD5021208783CD702124D
:101FB300087871D702120878D9D70212087808D99D
:101FC30002120878BAD902120878EBD902120878FB
:101FD30003DA0212087892DA0212087846DD021256
:101FE30008781EDF021208783ADF0212087856DFFB
:101FF3000212087824E00212087808E40212087832
:102003001A8201120878528201120878308701126D
:102013000878768701120878C388011208782E8918
:1020230001120878B78A01120878C78D011208785F
:10203300E28E01120878F498011208788799011248
:102043000878D99C01120878D59D01120878309E32
:10205300011208787A9F0112087868A001120878A3
:1020630004A30112087878A401120878FBA40112D2
:102073000878FEA40112087873A5011208787DA5DB
:10208300011208788AA501120878B5A5011208780B
:1020930065A6011208785EA70112087809A8011243
:1020A300087827A80112087840A80112087869A8BF
:1020B300011208788BA801120878E0AA01120878A7
:1020C300A5AB01120878EAAB0112087869AC0112DA
:1020D300087815AD0112087847AD011208789BAD59
:1020E30001120878D6AD011208781DAE01120878E6
:1020F3006DAE0112087872AE01120878C6AE0112F5
:102103000878F2AE01120878DBAF011208782CB020
:10211300011208788CB001120878E6B00112087831
:1021230081B101120878C0B401120878D2B5011246
:1021330008784CB7011208785CBA01120878FABA29
:1021430001120878F0BD01120878AFBE01120878B9
:10215300F3BE011208789EC001120878B2C00112C2
:102163000878BCC001120878C6C001120878D2C032
:1021730001120878F7C001120878D0C2011208785A
:1021830025C3011208782FC30112087839C301123D
:102193000878AEC301120878FDC3011208780EC592
:1021A300011208785BC50112087868C60112087825
:1021B300ACC60112087852C70112087845C801124B
:1021C30008780BC9011208782ECA011208784CCB83
:1021D3000112087834CC011208784CCC011208782B
:1021E300A3CC01120878ADCC01120878B7CC011248
:1021F3000878C2CC01120878E0CC0112087828CD07
:10220300011208788ACD01120878B1CD011208783D
:10221300C3CD011208785ECE0112087893CE011265
:1022230008787ACF01120878BFCF01120878A5D0B9
:1022330001120878CCD0011208784FD10112087826
:10224300C0D10112087849D30112087875D401125C
:10225300087838D50112087800D6011208788AD692
:1022630001120878B2D70112087854D801120878FD
:10227300CFD8011208788BD901120878D5D9011269
:1022830008782FDA0112087807DB011208782ADBB5
:1022930001120878DDDB01120878FFDB01120878F0
:1022A30068DC011208787EDE0112087876DF0112FD
:1022B30008783AE0011208786CE201120878B6E275
:1022C3000112087806E3011208786AE3011208781C
:1022D300CCE301120878FAE3011208781EE4011234
:1022E300087853E40112087884E401120878B7E40B
:1022F3000112087807E5011208785AE501120878F7
:102303007FE6011208781FE8011208787AE80112C3
:102313000878A3E80112087830E9011208789EE9E9
:1023230001120878ACE901120878D0E901120878A3
:1023330025EA0112087840EA01120878F2EA01124C
:1023430008782AEB011208786DEB01120878D0EBBC
:1023530001120878D2ED01120878FCED0112087819
:10236300F3EE01120878FDEF01120878ADF00112C7
:1023730008781DB50512087855B50512087876B5A5
:1023830005120878B8B5051208781AB60512087848
:1023930024B60512087834B6051208786FB605120C
:1023A30008784FBA051208783CBC0512087822BE9B
:1023B30005120878B9BE051208785BBF05120878C4
:1023C300872F00120878323000120878E0300012AC
:1023D3000878E631001208780632001208782F33A5
:1023E30000120878EA34001208785D350012087884
:1023F3000136001208780D3700120878783700127A
:102403000878B43700120878F737001208783238A2
:102413000012087874380012087809390012087815
:102423008539001208784F3A001208782C3B0012C5
:102433000878C43B00120878DE3B001208780E3C93
:10244300001208783F3C00120878053D0012087816
:10245300153D00120878643D00120878713D0012A2
:1024630008787A3D00120878F83D00120878543E47
:10247300001208789F3E00120878BA3E00120878CE
:10248300E53E00120878023F001208780E3F001262
:102493000878A54000120878BE400012087843412E
:1024A3000012087856410012087875410012087826
:1024B3001942001208789A43001208784D45001219
:1024C3000878E34500120878E64500120878564676
:1024D300001208787446001208780B470012087837
:1024E3005347001208785647001208781C48001218
:1024F3000878894800120878AF48001208783A49EA
:10250300001208785849001208789E49001208788A
:10251300524A001208789C4A00120878CB4A0012EB
:102523000878284B001208785D4B00120878894B15
:1025330000120878974B00120878E44B00120878D1
:10254300544C001208789D4C00120878E94C001294
:102553000878154D00120878204D001208783E4D7A
:1025630000120878294E00120878334E00120878BA
:102573006E4E001208787E4E00120878D24E00127A
:102583000878E64E001208781550001208782A5091
:1025930000120878B85000120878FD50001208782D
:1025A300895100120878945100120878D65200120B
:1025B3000878F152001208783D5300120878AC53A2
:1025C30000120878E55300120878FF5300120878C8
:1025D3005F5400120878FE5400120878495500121F
:1025E3000878195800120878CB580012087838591F
:1025F30000120878785B00120878905B0012087864
:10260300935B001208789F5B00120878B35B00129B
:102613000878BB5B00120878EE5B00120878F15C67
:10262300001208787E5D00120878EE5D00120878CB
:10263300705E00120878315F00120878505F001254
:102643000878F15F001208784E6000120878516034
:1026530000120878C5600012087814620012087826
:102663001A6300120878A56300120878C064001288
:102673000878886500120878B96500120878DC6567
:1026830000120878E56500120878146600120878CD
:10269300A466001208785A6700120878CF67001200
:1026A3000878766800120878EB68001208782269C7
:1026B30000120878606900120878B5B0051208782E
:1026C300E7AF05120878D1AF0512087892AF05126B
:1026D3000878ECAE05120878D0AB05120878A3A9E8
:1026E3000512087873A90512087817A90512087846
:1026F300B1A80512087870A80512087850A8051229
:10270300087882A7051208781DA705120878C1A6C4
:102713000512087864A60512087802A50512087840
:102723009FA405120878E9A305120878E4A305120B
:102733000878CDA30512087898A305120878C3A0DA
:1027430005120878C0A0051208788ECB0512087808
:102753007EA00512087816CB051208788EB40512F0
:10276300087843B405120878D7B30512087874B310
:10277300051208784AB3051208786BA00512087889
:1027830060A0051208783CA005120878829E051205
:1027930008781AB3051208780A9E05120878A19DD5
:1027A30005120878209D05120878DC9C051208782C
:1027B30010B305120878B59C05120878FAC90412FB
:1027C3000878CBCA0512087872CA0512087834CA89
:1027D3000512087807CA05120878D3C905120878C4
:1027E30072C9051208785AC9051208782AC9051250
:1027F3000878FFC505120878D2C305120878D9C135
:10280300051208785FC1051208780EC10512087811
:10281300C8C005120878A3B20512087832C00512A1
:102823000878E5B90400000080FBE4738700010029
:10283300711C35000400371C250002003B1C2600D8
:1028430002003D1C270002003F1C28000100491C18
:10285300290001004A1C8400040026198600010097
:10286300A41B2A0001004B1C2B0001004C1C2C0054
:102873000100511C2D00080034192E000100521CC8
:102883002F000100531C30000100541C31000100D3
:10289300551C320001003C19330001003D1934007E
:1028A3000100561C360001003E1938000100571C78
:1028B30039000100501C830002006F1C63000100FB
:1028C3004919640001004D1C650001004E1C6D0098
:1028D30001004A19710008002C19660001006E1CE2
:1028E300430001005F1C44000200601C450001001E
:1028F300621C46000200631C47000800411948009F
:102903000100651C4B000100661C04000100721CE1
:10291300A1000100751C37000100741C8800010030
:10292300731C3C0001003F193D000100581C490085
:102933000200671C670001004B194D000200691C6F
:102943004E0001006B1C4F0002006C1C3E00010096
:102953005E1C510001005A1C520001005B1C530015
:1029630001005D1C5400010040190000000000003C
:1029730000013636010100010201000103010001DB
:102983000401060605020000070100340801000FD8
:10299300090401010D0100FF0E08000017020000E9
:1029A300190100FF1A0100011B0100FE1C010008B0
:1029B3001D0200001F01000120010001210200008F
:1029C3002301000F24020000260100012701000853
:1029D300280200FF2A0100072B0102402C010000FE
:1029E3002D0100012E0100012F0100FF30010B1DFD
:1029F300310800003A0100083B01000F3C010001CF
:102A03003D0100FF3E0400004204000046040000B4
:102A13004A0400004E040000520400005604000063
:102A23005A04000000000300200117820000000088
:102A33002001188200000400420179810000050092
:102A4300420139810000060042012881000007008D
:102A530030011982000010004203031C0000110022
:102A63003003E717000012001003141C03000000DA
:102A73002103E8170000FDFF210112820300FDFF7F
:102A830021011282020400002905E4170600000058
:102A93001001E6170103710301030103010301039D
:102AA30001032203020301031003000300030003D5
:102AB300000300030003000342030003240306038F
:102AC3000003000304031203250323032503230345
:102AD300040304030003000300034403000300038F
:102AE300230300036503210035038103000305036A
:102AF3000003000300030003250323030300710005
:102B03003001600011007000310220035004800086
:102B13001000610000001400630073007200620083
:102B23004300000013000600000000000400120030
:102B3300000000000000000004000400370037001C
:102B43003C0244000000000000000000650000009B
:102B5300350081000000050000008300000003042D
:102B630071040204600411047004020402040104E9
:102B73000204100461040004140463047304720463
:102B83006204430400041304060400040004040460
:102B9300120400040004000400045104640000044F
:102BA3000004000444040004000400040004650459
:102BB3000004350481046400050400048304000454
:102BC300030271023001600211027002010202026B
:102BD30002028002100261023A00410063027302A2
:102BE3007202620243020002130238000002000272
:102BF30004021202000200020002000204020402A4
:102C0300370037003C024402000239000002000290
:102C1300650200023502810200020502820283027C
:102C230000020101710101010101110101013101E1
:102C3300010101018001100161013B0014006301E6
:102C430073017201620143010001130106013D0199
:102C5300350004011201000100010001000104011B
:102C63000401330133013C01440132013600000108
:102C730000016501000135008101000105018201A8
:102C83008301000136000100060000000F00000070
:102C93000000000000000000000003FFFF0000042C
:102CA30003FFFF0000FFFF0FF4010005C40403202E
:102CB300000100140B000000000000000003010FDE
:102CC3000000000000000000000000000000000001
:102CD30000000000000000000000000000000000F1
:102CE3000000DC130614E2132213E8130C14E81398
:102CF3001814EE132213E8130C14F4132213000018
:102D03000000FA132213000000000000000000146A
:102D1300221300000000000000000000000000007B
:102D230000000000000000000000000000000000A0
:102D3300000000000000000000000000000013007D
:102D430054171F005A171F8060170000D81701007F
:102D5300D8170200D6160280D0160300DC16040032
:102D6300E2160480E8160500EE160600FA16300097
:102D73001817310012173200241733002A173500B1
:102D830030173400361736003C171100481714006B
:102D93004E1715000C17FFFF00000A000000020089
:102DA30000000400000008000000100000002000E4
:102DB300000040000000800000000001000000024D
:102DC30000000004000000080000001000000020C4
:102DD300000000400000013C20066C200866200B28
:102DE3008A2010241D024220055A200748200C2463
:102DF300200D302064081BFF000007ECFDFDFDECF7
:102E0300DCDCCCBCACAC9C9C8C7C7C6C6C5C5C5C7F
:102E13004C4C3C3C2C2C1C1C00160F00000B150BBF
:102E2300020002220F3300000E0F0000000000001A
:102E3300000000000000000000005A696742656559
:102E4300416C6C69616E63653039D0D1D2D3D4D50E
:102E5300D6D7D8D9DADBDCDDDEDF150AF4D4C0A59A
:102E6300958272636155504900034D4C4651181ABF
:102E7300250502003C40423A3F3F392F47300001CD
:102E83001916181616182303003030171819213095
:102E93001B1D1F30303016181920231A1C1E300C2E
:102EA3000E020B040B0A0708000F020402010101C2
:102EB30001090200BE040AE8030000F6FB01000357
:102EC3000000000000E803FD2D0E005D2E7F0005CD
:102ED300101E04041E10080C2800040E0200090929
:102EE300033C0C080508150300FF030C0AFFE4F07C
:102EF300A3F0A3F0A322122EF1F022901A9612440B
:102F0300FD12242C22122F0C22E0F508E4F509F51A
:102F13000AF50B22E824FBF582E934FFF58322E866
:102F23002411F582E439F583E022F583122F33224D
:102F3300E0F508A3E0F509221226A874041208A8F4
:102F43007F0802060D7401F09004B9E0640F227447
:102F5300091208A87F0402060DEA2413FAE43FFBD2
:102F63001225D6E92279051225E2740622A3A3E0ED
:102F730024F5C39413221226B49004D91264BB7AA5
:102F8300147B0022C082C083901A757420F0A3744E
:102F930024F0A37432F0A37424F0901A797408F027
:102FA300A37424F0A37402F0A37424F0A3743EF07A
:102FB300A37424F0A37444F0A37424F0A37438F02E
:102FC300A37424F0A374F0F0A37423F0901A85740F
:102FD30014F0A37424F0A3741AF0A37424F0A3745C
:102FE3000EF0A37424F0A3744AF0A37424F0901A8F
:102FF30096124ECC6009901A961244F91211FC9065
:103003001A931248137408125B68A3F0901B3FF0E5
:10301300901A98F07C0BFDF97A997B1A1211307C87
:103023000B7D0079007AA47B1A12113002466D746D
:10303300F71203F874F712095BEAFEEBFF1230C5CF
:1030430074051249317403F01231DC124913243030
:10305300FCE43FFD8C821230BD1230D1600812387F
:10306300EA74FFF0A3F0EE242EE43F1C1CFD8C82D7
:10307300F583A3E0C0E08A828B831245C5D0E012BA
:1030830030D188828983124E002403F0EE1238F483
:10309300120B837403F09004CE12072074021209FA
:1030A3003B1234BE1208A8E9F5087007EEFAEFFBED
:1030B3001224BCA9087409023903F583E0888289C4
:1030C3008322EA1230CA2212500F3FF58322125D87
:1030D300E812491FE8F0A3E91260BFE02274F0127E
:1030E30003F8EAFEEBFF8C0C8D0D890B1231DCF536
:1030F300831249277410120B83E0F508A31230BF23
:10310300F0E824FFF582E91234D0E508F0E824FE64
:10311300F582E91234D0E50BF09004D3E0C0E0E887
:1031230024FDF582E91234D0D0E0F09004D2E0C05F
:10313300E0E824FCF582E91234D0D0E0F0741212F6
:103143000B83122F2F122F17E509F0E824FAF8E961
:1031530034FFF98882F583E508F0EE2404FCE43FAC
:10316300FD88088A828B83E0F50E8C828D83E025AF
:103173000EC39508125DE812474D850C82850D83B9
:10318300A3A3A3A3A3A3A3A3E064037009EE12491B
:1031930001F0A3E480031234D51234DD7409F07511
:1031A300089975091A750A0078081208911258B21D
:1031B3001208A87508FF7509FF7808120895AC0C6A
:1031C300AD0D1234BE1208A8E9F5087007EEFAEF48
:1031D300FB1224BCA908022F43EA2402FAE43FFBB2
:1031E3008A8222C082C083901AB5E0C39408400447
:1031F30074078001E08A828B83F033333354F8F908
:1032030002466D74F01203F88A088B09890A8C0E42
:103213008D0F750C00A2AFE433F50BC2AF901AAF5C
:103223008045123308503D12332264037036E5089B
:1032330024F9F508E50934FFF5098E828F83A3A3EA
:10324300E02405FCA3E03400FDAA08AB091212EC4C
:10325300E50824FFF508E50934FFF5097410250C8A
:10326300F50C150A1236F7126870E50A6004EE4F82
:1032730070B0E50BA2E092AFA2AFE433F50BC2AF9F
:10328300901AAF803E124DD98882F58312404D8546
:103293000882850983F08A828983123319A3A3E004
:1032A300C0E0E50824FFF582E5091234D0D0E0F050
:1032B300E50824FEF508E50934FFF509050C150AB0
:1032C3001236F712354B6021123322640270F11269
:1032D3003308EE40B0124A48A2E550E4850E8285D9
:1032E3000F837401F0E50A70D7E50BA2E092AF8576
:1032F3000882850983E50CF0E50824FFFAE5093423
:10330300FFFB022F4312330EA2E622EE2411F582B5
:10331300E43FF583E02212331D22124E1EA3228EB8
:10332300828F83A3A31245C91254F52274F01203AA
:10333300F874F312095B7403120B83E9F07402123D
:103343000B83EAF08B0B851882851983E4F0041252
:1033530009331223D2E9F89004B8E0292437F50899
:10336300FA7B001211488A0C8B0DAE0CAF0DEA4F9D
:1033730070030234B5EA2402F50EE43FF50FA80802
:10338300EA28F8E43BF9850E82850F83123E4990C3
:1033930004B8E0F9FAC3E49AFA95E0FB850E828556
:1033A3000F83E02AF50CA3E03BF50D9004B6122F32
:1033B3002F750A007808120891E9FC7D00AA0CAB6E
:1033C3000D1248831208A8AC18AD197401120B83AF
:1033D300E0F9E50C24FFFAE50D34FFFB1223D88A4C
:1033E300828B83E4F0E50BC454F0F9901B40E0C4F6
:1033F300333354C0F89004B2E0A2E0E4331313482B
:1034030049440FC0E0EA24FFF582EB1234D0D0E048
:10341300F0EA24FEF50CEB34FFF50D7403120B8375
:10342300E0F87402120B83E0C454F048850C8285E3
:103433000D83F0A80C850E82850F83125B352AC39A
:10344300988E828F83A3A3A3A3F0850E82850F8317
:10345300E8F0A3E50DF01234D51234DDE4F0740C7A
:10346300120B83E4F07508A475091A780812089101
:103473001258B21208A8851882851983E06009EEF4
:10348300240E124A4A4408F01225C4E9F9E4F50867
:10349300F5097808120895740612093B1234C01214
:1034A30008A8E97006EEFAEFFB800BEEFAEFFB12C9
:1034B300114E7A007B00740D022F407903EEFAEF70
:1034C300FB1225DC740222EE24FFF582EF34FFF5B4
:1034D3008322EE1230CAE4F0A322F01234E222EE89
:1034E3001257D53FF5832274F21203F88A0C8B0D21
:1034F300A2AFE433F50AC2AF750800750900901A4C
:10350300AF802C1237075024850C82850D83A3A32B
:103513001258C58E828F83A3A31244F91225CAE9D8
:10352300600A123702C2E6F08E088F091236F712CC
:10353300354B70CFE508450960061235E4D2E6F055
:10354300E50AA2E092AF800DE0FEA3E0FFEE4F227A
:1035530074021208A87F0602060D74F01203F88A9B
:103563000E8B0F8C0C8D0D750A00A2AFE433F50B97
:10357300C2AF7E007F00901AAF8010AE08AF091271
:1035830035DC124A48D2E7F01244D71244EB6034D8
:103593001235E4A2E750F1850882850983A3A312BB
:1035A3000720AC0CAD0DAA0EAB0F1225D07402127E
:1035B30008A8E960D3EE4F60C212397E7006123557
:1035C300F6D2E4F0E50BA2E092AFEE4F60061224D0
:1035D300B6750A01A90A022F4312330ED2E4F0EEA4
:1035E30022E5081257EF3509F583E022AA82AB835F
:1035F3001212EC8E828F83A3A31245C9E02274F2C8
:103603001203F874FE12095B750C00750D00851822
:1036130082851983E4F0A3F0A2AF33F50AC2AF9019
:103623001AAF126870802BEE24FBF582EF34FF1281
:103633002F2D780C1208951236E51208A8EEFCEF30
:10364300FDAA18AB1912116CAE08AF09901AB5E0B8
:1036530014F0EE4F602B123707501DEE240BF8E4E5
:103663003FF98882F583E024FFF0A3E034FFF0887C
:10367300828983124ECC60AF8E0C8F0D1236F78089
:10368300A1E50AA2E092AF901AB5E0602C9004B9CC
:10369300E0640F6006901B3FE0701E7A8D7B1A1268
:1036A30026B490820E12071C7A8D7B1A1246F512ED
:1036B30008A8800574F01245D6AA18AB1912117226
:1036C3008A088B09AE08AF09EA4F60131223E4128C
:1036D3003702A2E28E828F83A350D974E980D70286
:1036E3003553EEFCEFFD7AAF7B1A12117E74022282
:1036F3008E0A8F0BEE24FBF582EF34FFF58322EE67
:1037030012330F2212330EA2E72274F71203F8EAE0
:10371300FEEBFF1223E41245C212282DE964019047
:1037230004D5700AE02401F8A3E0340080031245B5
:1037330048F9124C4A12474D901AB5E0701F900495
:10374300B9E0640F70177A8D7B1A1226B490820E3B
:1037530012071C7A8D7B1A1246F51208A8A8A8C274
:10376300AF901AB5E004F0E8A2E78004E508A2E010
:1037730092AF024B5874F71203F8EAFEEBFFEA121A
:1037830037AEF01223E4EEFCEFFD7AAF7B1A121191
:1037930078A8A8C2AF901AB512409C9004B9E0640F
:1037A3000F7005790812257C024B5812330FC2E4BF
:1037B3002274F71203F874EA12095BEAFEEBFF9036
:1037C30004B2E0602A8518828519837401F0120B14
:1037D30083E4123869120B831235EFC0E0740A12C6
:1037E3000B83D0E0125B55740B120B83124DB5742F
:1037F3001602390374F71203F8EAFEEBFF1223C62D
:10380300E9F974DC69601E74DD69601974E4696048
:103813001474F369600F74DE69600A74DF6960050C
:1038230074DB697007EEFAEFFB122582024B5874C2
:10383300F71203F874EB12095BEAFEEBFF851882BB
:103843008519837406123869120B83AA82AB83121B
:1038530012ECEE2408FCE43FFD740A120B83124DB4
:10386300B57415023903F0EA2413FCE43FFD740236
:103873002274F71203F874F712095BEAFEEBFFEA0E
:103883002430124A4A605DEA1238F4120B8374033F
:10389300F09004CE1207201238EA1207209004E1B8
:1038A300E0F9740412093BEEFAEFFB1223CC740423
:1038B3001208A8E9F974DC69602374DD69601E7479
:1038C300E469601974F369601474DE69600F74DF6E
:1038D30069600A74E869600574DB697007EEFAEFE2
:1038E300FB1225820230B8EE242EF582E43FF583E5
:1038F30022125CC6AA18AB191212EC7408227403C4
:103903001208A8024B5874F21203F88A0C8B0D7537
:103913000A00750B007508E7A2AFE433F509C2AFDF
:10392300901AAF80031236F312354B602512370716
:1039330050F312397E70EEEE2432123B15E06870BC
:10394300E4780A1208951236E51208A8901AB5E031
:1039530014F0E509A2E092AFEE4F6013EEFAEFFB2D
:103963001223E479F0EEFAEFFB122582750800A921
:1039730008AA0CAB0D1225820235581234E2E0641A
:10398300012274F41203F874F712095BEAFEEBFFE9
:103993008A82F583A3E064F37003023A238A828B5D
:1039A30083A3E064DF60798A828B83A3E064E860A9
:1039B3006F8A828B83A3E064DB6065122426E9F5BA
:1039C300087055EE240E124A4A604D123A2D604893
:1039D3007408120B83123A3C1207207508FF75090D
:1039E300FF78081208958E828F83A3A3A3A3A3A3B2
:1039F300A3A3E0F9740412093B1223CC7404120844
:103A0300A8E9F50874F369600F74DF69600A74E864
:103A130069600574DB69700F8E828F83A3E508F0FC
:103A2300EEFAEFFB122432022F52EE240FFAE43F98
:103A3300FB7909122468EA4B2274021252BB74FF09
:103A4300F0A3123A4922124E09A3A32274F11203DE
:103A5300F8EAFEEBFF7508008A82F583A3A3A3A30C
:103A6300A3A3122F7040037508E88A828B83A3A354
:103A7300A3A3A3A3A3A3A3A3E0C394104005750822
:103A8300E880138A828B83A3A3A3A3A3A3A3A3A3E3
:103A9300A3E0640F600B901B1CE0540870037508CF
:103AA300E8EA240B123B15A3A3A3A3A3A3A3A3E0B8
:103AB300C398500DEA240B124A4A640F6003750839
:103AC300E89004D2E0F47003A3E0F470037508EC0B
:103AD3007A237B001211F68B0BA90B901A96123BDB
:103AE3002460278E828F83A3A3A982AA83890C8A49
:103AF3000D750E00780C1208917C237D00901A96A8
:103B0300E0FA1248831208A8800375081AA908026C
:103B130058ADF582E43FF583E0F88A828B83A3A353
:103B230022EAF0A3EBF0EA492274F51203F8EAFE65
:103B3300EBFF8A82F583A3A3A3A3A3A3A3A3E0908C
:103B430004B9123BBCE09004D4F0EA240B124A4AB5
:103B53009004B4123BBCA3E0901B40F0F9120EA2F8
:103B6300901B40E0600BEE2404124A3C2406123BF7
:103B7300B2901B3F122F48600474018002740090BE
:103B83001A981262001208917C0B7D007A997B1AB5
:103B93001248831208A8EE2418F508E43FF50978C3
:103BA300081208917C0B7D007AA47B1A024870FAF4
:103BB300E43FFB79E1120E8A221261EAA3A3A3A3D5
:103BC3002274F71203F8EAFEEBFF8A82F583A3E07F
:103BD3007003122EFE125D71024B5874F71203F834
:103BE300EAFEEBFF901A96124ECC6010901A9612D2
:103BF30044F9901A96E4F0A3F01211FC8E828F839D
:103C030074081245DD121A00024B5874F61203F8B9
:103C1300901B3FE06010901A98E0700A123C2CEA67
:103C23004B60031224BC025E6B9004B4E0FB90046F
:103C3300D4E0FA9004B9E0F91223DE2274F41203FB
:103C4300F874E712095BEAFEEBFF750B018A82F554
:103C530083A3A3A3A3A3A3A3E0A2E25069EA242B13
:103C6300F582E43F1258C3EA2413FAE43FFB12231C
:103C7300EAE97052908166E064017005750B00807B
:103C830045123CFE1208917C0B7D0074111209331E
:103C93001248831208A81225C4E9FA740E12092BDC
:103CA300880889097808120895750830750900781D
:103CB30008120895EE125B1E120720125CB87901F8
:103CC300122F6A1208A88518828519837410F012BE
:103CD3005CB87402120B83AA82AB831212E0EE2447
:103CE3002B1264B1740B120B8312474D740D120B1C
:103CF30083E50B125F2A7419022F54EE2408126213
:103D03000822C082C083901B40E060031226360263
:103D1300466DC082C083901B377475F0A3741AF08C
:103D2300A37479F0A3741AF0A37485F0A3741AF042
:103D3300901C887461F0A3742BF0901B2174C0F065
:103D4300A37423F0901ABA74F6F0A37423F0901AB4
:103D5300BC74FCF0A37423F0901B1CE044020241EA
:103D630071C082C083EAFCEBFD7903024E78C08206
:103D7300C0837908025FEBC082C08374FE12095BC3
:103D8300901AC274A4F0A37424F0901AC4749EF021
:103D9300A37424F080077AAF7B1A123DD6901AAF32
:103DA300124ECC70F1901AB1124ECC60097AB17BED
:103DB3001A123DD680EF901AAFE4F0A3F0901AB533
:103DC300F0A3F0A3F0901AD074E0F0A37424F0747D
:103DD30002801C121172851882851983EAF0A3EB05
:103DE300123DEA1225B222F0AA18AB19227411125D
:103DF30008A802466D74F61203F8E9FF747629F5F4
:103E030082E4342EF583E493FEFA7B00121148EA30
:103E13004B6007EA2E123E4680267A027B0012117F
:103E230048EA4B6017748C2FF582E4342EF583E453
:103E3300938A828B83F0A3741A12420F7A007B0059
:103E4300025E6B12473CE8125DE5A3A3A3A3E4F073
:103E530022E9FC740629F8EAA2E0501EE875F00A8C
:103E630084E5F0F96014740A28C399F8E9C394054A
:103E73004004740A28F8740B28F8ECC39413400424
:103E8300791480027906E82979002409F850010998
:103E93007A0A7B001202A8E8F9020875C082C0837F
:103EA300901B1CE05402600A121A06E960047901AF
:103EB3008002790002466DC082C083901B1CE054CF
:103EC300026014901AB5E0700A124EC96009123EDE
:103ED300DF500479018002790002466D122F22A27D
:103EE300E722C082C083908163E0F8901AB7E0C3F1
:103EF30098500512114880047A007B0002466DC079
:103F030082C0831225B2790002466DC082C08374D9
:103F1300FE12095B851882851983EAF0A3EB124030
:103F230078A3A3A3A3A3E0600A14605724FE605AF6
:103F3300023FE89004B9E0640F6012122588E9702B
:103F43000C1244F3901ABE1245C512282D9004E1B9
:103F5300E0C0E0851882851983124DECD0E0124051
:103F6300787414125809FCA3E0FD7AB17B1A12117C
:103F73006CA8A8C2AF901AB712409C792012257C76
:103F8300023DD2124346741580D9124346A3A3A31C
:103F9300A3E060511243461235FAC0E085188285CA
:103FA3001983E02406F582E43BF583D0E012580937
:103FB3002402F8A3E03400F98882F583E02401FAAF
:103FC300A3E03400FB88828983EAF0A3EB1258094B
:103FD300124386851882851983601312404D60054C
:103FE30012405F4048AA18AB191225B280921240C2
:103FF3004D60F212405F502112406CFA85188285A1
:104003001983A3E0C82406124342F874AC1250018A
:10401300342EF583E4936A6014851882851983121C
:10402300404D640870BF12406C640870B812406C55
:1040330014124080240AC0E0851882851983124532
:10404300C5D0E012408004023F661240512212455F
:1040530048C82406F582E438F583E0228518828572
:104063001983124051C3940A228518828519831239
:10407300331DA3E02212408AF58388822212408AEC
:10408300C8240612437022F08518828519831245CD
:104093004822A8A8C2AF901AB6E004F0E8A2E792BB
:1040A300AF22C082C083901AC6124ECC600812435E
:1040B3004D12282D8002790002466D74F71203F821
:1040C300EAFEEBFFEA1234E374011246FBF8A3E0C5
:1040D300F91230C512474DEA2435124A4AC0E0EAC4
:1040E3002413F582E43FF583D0E0F0EA2436124A44
:1040F3004AC0E0EA2414F582E43FF583D0E0F0EA15
:104103002438124A4AC0E0EA2418F582E43FF583D2
:10411300D0E0F0EA242FF582E43FF5831207201262
:104123005CC5EA2431124A4AF91234C41208A8E9D8
:10413300F5087007EEFAEFFB1224BCA908024B58EE
:10414300C082C083122588E9600479208002790146
:1041530002466DC082C083EA2411124167D2E08017
:104163000DEA240DF582E43BF583E022F0A3F0028F
:10417300466DC082C083124164640170111242090A
:10418300400C8A828B83A3E0F91225828066124158
:10419300FAA2E650128A828B83A3E0F9901AC01226
:1041A30045C512282D804D1241646401700D1242E1
:1041B3000950088A828B83743080368A828B83A36A
:1041C300E0641B8A828B83700474228024A3E070D2
:1041D3000D124164F87497125001342E800B124172
:1041E30064F8748C125001342EF583E4938A828B25
:1041F3008312420F02466D1241FE22EA2410F58219
:10420300E43BF583E0221241FEA2E322F0901B1768
:10421300E0F91211542274F71203F8E9FE124EC9A1
:10422300700302433FEE6014741B6E701AE812575A
:10423300D539F583E064057003024317901AB91268
:10424300434DA3E402431E74E96E7068E82412F53B
:1042530082E439F583E0700B121A0CE9600512430E
:1042630090606179EE120E0C901AB8124367901A9F
:10427300B8603A124393901AB8700B12436714F064
:10428300120FCE02433F124385C2E712452E240D7F
:10429300124342640370091243601244E4D2E2F011
:1042A30079ED120E0C12437812282D8078124353A5
:1042B30074E9806774E16E703E121A0CE96055125E
:1042C300439070509004DBE0C0E01243602412F589
:1042D30082E438F583D0E0F09004CAE0C0E0901A9D
:1042E300B812435C12435CD0E0F09004CAE004F0DF
:1042F3007901120FB68045741C6E7018901AB812AB
:1043030044F9901AC81245C512282D901AB8E4F042
:10431300A3F08028901AB8124353EEF0901AB81203
:1043230044F91224AA12450FE054806003125FDAA5
:10433300901AB8E4F0A3F0791012257C024B5812BE
:10434300437022851882851983A3E0F5838882222E
:10435300124357221245CDA322124E1A22901AB8A5
:10436300124DFB22124DFB241212437022F582E4FC
:1043730038F583E022901AB81244FD901ABC124516
:10438300C922E0F8A3E0C8241012437022901AB89F
:10439300124516E054042274F41203F8750A0075EA
:1043A3000B00A2AFE433FEC2AF124EC96003024456
:1043B3008D1245C212282DE94410F8901AAF8009D6
:1043C30085080A85090B1244D71244EB7003024493
:1043D3008D1235E4586870E8780A120895AC08AD78
:1043E300091236E91208A8901AB8E508F0A3E509FE
:1043F30012452E1244E4A2E75003024494901AB6E5
:10440300E014F0EEA2E092AF901AB8E0240EF8A305
:10441300E03400F9E8FEE9FF8882F5831244F9905D
:104423001AB8124072F912246EE9901AB3125B683B
:104433008E828F83E05480601812436024131243EA
:1044430042F9120EC61243602414124342F9120EAB
:10445300BA12450FA3E05401605F901AB3124ECC19
:1044630060451245256040124525F87900901AB33E
:104473001244F91202B0E8C0E0124503D0E012453D
:1044830033C3941340117402800FEEA2E092AF8005
:1044930037901AB50244037400C0E0901AB9E0C81B
:1044A3001244CED0E0800D124503740112452E1242
:1044B30044CE7401F07903800C901AB8124385A29C
:1044C300E1B3E433F9120FB6022F57241AF582E44D
:1044D30038F58322E50824FBF582E50934FFF583EB
:1044E300221257EF12437322122F33E50845092294
:1044F3008518828519831244FD22E0FAA3E0FB228A
:10450300124DF82419F582E438F58322901AB81273
:10451300451622124548C812451E2212500F38F57F
:104523008322124DF8241812437022124540C822E8
:10453300124540F5838882A3A3A3A3E022F0901A37
:10454300B812454822E0F8A3E02274F71203F8EA10
:10455300FEEBFF1225AC124A47A2E3400A12397E52
:1045630070059081618003908162E0F9EEFCEFFDBC
:104573007AAF7B1A121184E96038EEFAEFFB901AD6
:10458300C21245C512282DEE240E124A4A54047055
:1045930012124095EE1230C6A3E05401701E12248D
:1045A300B68019EEFAEFFB901ABA1245C512282D00
:1045B300800A8E828F83A374F11245D6024B5890E2
:1045C3001AC41245C9221245CD22E0F8A3E0F583AF
:1045D3008882221245DD1224AA22F0EEFAEFFB2292
:1045E30002466674F71203F8EAFEEBFF7900901BAC
:1045F3001CE05402700CEA2433124A4A5404600249
:1046030079E8901B1CE05460700CEA2433124A4A88
:104613005402600279E88A828B83A3A3A3A3E0F800
:10462300908167E0C398500279E8EA2431124A4A3C
:10463300700CEA242E124A4A700479F5800BE97053
:1046430005122498E9F9E96007EEFAEFFB122582D7
:10465300024B58C082C0838A828B83740DF0121A76
:10466300008007C082C0831224B6D083D0820208A0
:104673007574F41203F8EAFEEBFF8A82F583E4F023
:10468300A31246FB54049081617012E0F8901AB6AD
:10469300E0C398401279F1122582022F57E0F89077
:1046A3001AB5E0C39850EE124701A3E054016037F6
:1046B300EA2437124A4AC394054033EA2433124AA0
:1046C3004A540570297ACA7B1A1226B4EE2437F5A8
:1046D30082E43FF583122F08780812088D7ACA7B8B
:1046E3001A1246F51208A8EEFA1250F280AC79E8D5
:1046F30080A51226A8740422F0124701E022EA24BE
:1047030033F582E43FF5832274F61203F8E9FE24BD
:1047130051FAE43400FB121148EA4B6015EE8A8229
:104723008B83A3A3A3A3F0EA245112473C12474D62
:1047330080047A007B00025E6BF8E43BF98A828B8B
:1047430083A3A3221264BB901B94E8F0A3E9F02295
:10475300024666C082C083901AD3740AF0A37425FC
:10476300F0A3743AF0A37425F0A37410F0A3742596
:10477300F0A37416F0A37425F0A37434F0A3742586
:10478300F0A37428F0A37425F0A37422F0A3742576
:10479300F0A37440F0A37425F0A37446F0A374252A
:1047A300F0A3744CF0A37425F0A37458F0A37425FC
:1047B300F0A3741CF0A37425F0A37404F0A3742570
:1047C300F0A374FEF0A37424F0901AEF742EF0A3F8
:1047D3007425F0A37452F0A37425F0A3746CF0A3B2
:1047E3007426F0A3745EF0A37425F0A37464F0A39D
:1047F3007425F0901B13E4F0901B16F0901AFF122F
:1048030048137402F0901B0812481374010241719B
:10481300747CF0A37425F0A32274F51203F874F1E9
:1048230012095B8518828519837402F07401120BD7
:1048330083E9F060047AFF7BFF7402120B83125248
:10484300B075080B75091B750A0078081208917C6E
:104853000B7D007407120B83AA82AB831248831269
:1048630008A8AA18AB19121A00740F800312488300
:104873001208A87F0302060D7C0B7D007A0B7B1BBD
:1048830012112474032274F71203F874FD12095BE6
:10489300851882851983740AF07401120B83E9F079
:1048A3007402120B83EA125F2A02390174F61203AF
:1048B300F874F712095BEAFEEBFFEA1249011249A9
:1048C300317402F0EA2428FCE43FFDAA18AB191264
:1048D30012E0EE24311249072433125929120895A4
:1048E300740212093B79831A1A1234C21208A8E916
:1048F300F5087007EEFAEFFB1224BC025E64123077
:10490300CA740122F582E43FF583122F33124DD18D
:10491300F58312491FE8F0A3E9F0EE221249278A32
:10492300828B8322E024FFF8A3E034FFF922F0A373
:10493300E4F0EA1234E32274F01203F812639912DA
:104943000B2C7808790C120309780812088D7A0267
:104953007B1B022F3B74F41203F874C612095B909D
:1049630004B9E0640F600D851882851983742E12D3
:1049730052CF80227AF97B1A122F791202B088085B
:104983008909E4F50AF50B780812088D7AF97B1A80
:104993001246F51208A8743A022F5474F51203F85C
:1049A300EAFEEBFF8A82F583A3E0F87078EA24300D
:1049B300124A4A64026007E06403600278E8EA246A
:1049C30026F582E43FF583122F72400478E880587D
:1049D300E87052EA2426123BB2EE2431124A3C24F8
:1049E30030124A4A6402700EEE24281264B1900415
:1049F300C812474D80179004C874FEF0A304F0EE6C
:104A03002428FCE43FFD7ABF7B041212ECEE241B46
:104A1300123D0112089112487B1208A8EEFAEFFB2F
:104A23001224F8E9F8E8600EE88E828F83A3125C03
:104A3300CD7417125D77024876FAE43FFB79501282
:104A43000E8AEE22EE2410F582E43FF583E0227411
:104A5300F61203F874F712095B901B16E0703774B3
:104A630001F0F9120F80AA18AB191225BE75080BB5
:104A730075091B78081208957508017509007808EF
:104A83001208959004CE120720740612093B7A038C
:104A9300122F681208A8025E6674F71203F8124C0C
:104AA300787004A374EBF0901B16E0A2E25003C2EB
:104AB300E2F0E0A2E15005124C8980098E828F83D7
:104AC300742A125D77024B5874F41203F874FE12C1
:104AD300095B124B7E124DC4EC8518828519831233
:104AE3004E13E0F50B7015AA18AB197953120E8A01
:104AF300EE2413FAE43FFB794A120E8A123CFE12AB
:104B0300089112487B1208A81244F3A90B1224EC53
:104B1300901B16E0A2E15003124C90901B16E4F098
:104B23007402022F5474F71203F8EAFEEBFF8A8231
:104B3300F583A374EBF0901B16E0A2E150077A0013
:104B430079EB1224F2EEFAEFFB1225288007EEFA36
:104B5300EFFB12262A7F0102060D74F71203F812E7
:104B63004B7E901B13E4F0901B16F07AFF7BFF8EB5
:104B7300828F83A3E0F91224EC80DA124CC97A0203
:104B83007B1B1226B42274F71203F8EAFEEBFF1222
:104B9300252280BA74F71203F8124D06A3A3A3E0EB
:104BA30060047400800274EB124BD75003C2E2F02E
:104BB300E0A2E15005124CDA8011A2E0500D8E8282
:104BC3008F83742AF0A374EB125D77EEFAEFFB1276
:104BD30024CE80818E828F83A3F0901B16E0A2E205
:104BE3002274F61203F8EAFEEBFF901B16E0D2E103
:104BF300F07901120F808E828F83A3E07038122523
:104C0300C4E9FAEE240DF508E43FF5097808120823
:104C1300957508017509007808120895124C4A1217
:104C23000720EE2402FCE43FFD122F681208A8E9D6
:104C33008E828F83A3F08E828F83A3E060067A0037
:104C4300F91224F2025E6BEE240BF582E43FF58346
:104C53002274F71203F8124C787004A374EBF090EB
:104C63001B16E0A2E25003C2E2F0E0A2E1500312FD
:104C73004C89024B58EAFEEBFF7901120F868E82B4
:104C83008F83E0642022C2E1F0124C90227A008EDE
:104C9300828F83A3E0F91224F22274F71203F8122D
:104CA3004CC98E828F83A3A3A3A3E0600474008006
:104CB3000274EB124BD75003C2E2F0E0A2E15003BF
:104CC300124CDA024BCEEAFEEBFF7901120F867A21
:104CD300F97B1A1226B422C2E11261FBE0A2E4E4DA
:104CE30033FA124C922274F71203F8124D0674EB46
:104CF300124BDC5003C2E2F0E0A2E15003124C89F4
:104D0300024B58EAFEEBFF7901120F868E828F83E6
:104D1300A32274F71203F8124D2B024B5174F712AE
:104D230003F8124D2B024B58EAFEEBFF7AF97B1A7C
:104D33001226B4EEFAEFFB12254C2274F71203F895
:104D430074EF12095BEAFEEBFFEA125CB97ABF7BF0
:104D5300041212DAE960568518828519837409F002
:104D63007401120B8374EFF0124DC47402120B839F
:104D7300EC124E13A3A3E0C0E07404120B83D0E043
:104D8300124E00640870158E828F83A3A3124DEC1C
:104D9300E0C0E07405120B83D0E080067405120BAB
:104DA30083E4125B557406120B83124DB574110222
:104DB3003903AA82AB831225F4AA18AB19121A007D
:104DC30022124DD1F583124DE3FCA3E0F922EE123A
:104DD3004DD9FB8882222402F8E43FF9E8FAE9225C
:104DE3001245488882F583E022124DFB2407F582A1
:104DF300E438F58322901AB8124548C822124E04AB
:104E030022124E09E022F08E828F83A3A3A3A32252
:104E1300125DE5124E1A22124E1E22E0F8A3E0F5AF
:104E2300838882A3A322C082C08312263602466DE2
:104E3300C082C083901B3374D3F0A3741AF0A3749D
:104E4300EFF0A3741AF0901C827425F0A3742CF075
:104E5300A374C3F0A3742BF0901B1F74E6F0A37428
:104E630024F0901B1CE04401024171C082C083EA1C
:104E7300FCEBFD790212259A02466D74F61203F8D3
:104E830074FE12095B901B18124ECC60077A187BD4
:104E93001B1225B2901B1EE4F0901790124ECC60AB
:104EA300208007AA18AB191225B2901B17E0F9123C
:104EB30011608B09A909851882851983123B247017
:104EC300E27402025E68901AB81264BBE849227465
:104ED300F71203F8E9FA7B00901B17E0F912118A25
:104EE300024B5874F71203F874F012095BEAFCEBF7
:104EF300FDE9FE8A828B83E0F874A2125001342EFE
:104F0300F583E493C0E07401120B83D0E0F0640BEB
:104F1300700DE98A828B83A3F0122618024FFCE0FE
:104F23007003024FFC640C6003024FED741A6E7041
:104F33000B7404120B83E4F0A3024FEC7404120B02
:104F4300831252B0EA24321257B9C0E07403120B31
:104F530083D0E01261E6120B547406120B83120B1A
:104F6300488C828D83A3A3A3A3A3A3A3A3A31264A7
:104F7300B7740A120B83E8F0A3E9125006E0541049
:104F83006009851882851983E48013EC2412125773
:104F9300B9F89004DBE0C398851882851983F0E0A3
:104FA300C0E0740C120B83D0E0F0EC24151257B957
:104FB300C0E0740D120B83D0E0F0EC24161257B945
:104FC300C0E0740E120B83D0E0F0EC24171257B933
:104FD300C0E0740F120B83D0E0125006A3E054011B
:104FE30060087401120B837411F07402120B83EEC8
:104FF300F07401120933121A00741002390328F5F0
:1050030082E422F0EC12500F3DF58322240EF58248
:10501300E422C082C083901B1EE064037004790104
:105023008002790002466D74F71203F8901B1EE0AC
:105033001250A5748028F582741C39F583125537F4
:10504300C2E7F01250ACA3E493FE25E0FCE433FD89
:1050530074802CF582741C3D1258C3EC4D6005EE30
:10506300901B1EF08A828B83E025E0FCE433FDE88D
:105073002CF582E93DF583E493FCC4540F25E0F855
:10508300742D125001341BF583124ECC7005122679
:1050930006800CEC540F1250AC1245C512282D0299
:1050A3004B5825E0F8E433F92225E0FCE82CF5829F
:1050B300E439F5832274F21203F874FE12095B8952
:1050C3000B8A088B09125157125148601A125B62FE
:1050D300F50A780812089112516424021258B91281
:1050E30008A81250F08003125176023553AA0CEF30
:1050F300FB901B17E0F91211542274F01203F87499
:10510300FE12095B890B8A0E8B0F125157F5081299
:1051130051486027125B62A808EA28123E46850EB2
:1051230008850F09F50A780812089112516412587C
:10513300B71208A81250F079008005125176791A37
:105143007402022F40FA7B001211488A0C8B0DAFB8
:105153000DEA4F22746B29F582E4342EF583E49330
:1051630022A80B7481125001342EF583E493FC7D45
:1051730000EA22851882851983E50BF0791AAA18AB
:10518300AB1912258222C082C083E9901B1702410A
:105193007174F61203F874FE12095BEAFEEBFFEA80
:1051A300542070308039A8A8C2AF901AB7E0141207
:1051B300409E8A828B8312529D901B1A1252B01208
:1051C300258E851882851983E0641560077A1A7B1A
:1051D3001B1225B27AB17B1A121172EA4B70C7EF18
:1051E3005480700C8016901B1AEAF0A3EB1252C382
:1051F300901B17E0F9121160EA4B70EAEE5410604D
:105203000B851882851983742D1252CFEEA2E050BC
:105213000B85188285198374241252CFEE540260D1
:105223000B85188285198374251252CFEE540460BE
:105233000B85188285198374261252CFEE540860A9
:105243000B85188285198374281252CFEE5440605F
:105253000D7401120B831252B6742C1252CFEE54FA
:1052630080600D7401120B831252B6742F1252CF49
:10527300901B18124ECC601BA8A8C2AF901B18122B
:1052830044F9901B18E4F0A312409EA3EAF0A3E9AB
:105293001252C37A007B00024EC41252A122E0854F
:1052A3001882851983F022A3A3A3A3A3A3EAF0A3DF
:1052B300EBF022E41252BB22F08518828519832277
:1052C300F012258E7A1A7B1B1225B222123DEA12A6
:1052D300258E22C082C083901B1A125F256870023C
:1052E300EB697007901B1AE4F0A3F002466D74F7A4
:1052F3001203F8EAFEEBFFEA4F7003120C92A2AF1F
:10530300E433F508C2AF8E828F83124ECC6028E857
:1053130024FBFAE934FFFB901B1A1258C5E86C70A2
:1053230002E96D7007901B1AE4F0A3F08E828F835D
:10533300E4F0A3F01211FC02376FC082C083901B0C
:105343004174FAF0A37425F0A3740CF0A37426F04F
:10535300A37412F0A37426F0A374C8F0A37424F00A
:10536300A37418F0A37426F0A374C2F0A37424F0FA
:10537300A374CEF0A37424F0901B4F7448F0A3746D
:1053830026F0A3741EF0A37426F0A37424F0A37470
:1053930026F0A37430F0A37426F0A3742AF0A37448
:1053A30026F0901B40E4024171C082C0839004C880
:1053B300E064FE7003A3E0F470097CBF7D04121265
:1053C300E0801C8A828B83A3A3A3A3A3A3A3A374B8
:1053D30002F09004C81264B78A828B8312474D028D
:1053E300466DC082C0839004D2C3E094FEA3E094D0
:1053F300FF400479038002790202466DC082C083B4
:105403001255408C828D831254F56870397402688A
:10541300701C8A828B8312544EE06870298A828BB7
:1054230083A312544EA3E068701C7901801A74039D
:10543300687013EC2405FC50010DEA2405FA5001B1
:105443000B1212E68002790002466DA3A3A3A3A365
:10545300E0F88C828D83A3A3A3A3A32274F6120383
:10546300F87E00740A120B83E01254E9FF8A828BE0
:1054730083A3A3A3A3A3A3A3A3E06F706474026F86
:10548300704E8A828B83C082C08388828983A3A360
:10549300A3A3A3E0F50888828983A3A3A3A3A3A35B
:1054A300E0FBAA08D083D082E06A7003A3E06B70AC
:1054B3003088828983A3A3A3E0FA88828983A3A384
:1054C300A3A3E0F9EA6C7002E96D70157E01801107
:1054D30074036F700CE82405FCE439FD1212E6E94D
:1054E300FEEEF9025E6BF8A3E0F98882F5831254AD
:1054F300F522A3E01313543F540322C082C0838ACE
:10550300828B83A3A3A3A3A3A3A3A3E06402701624
:105513009004C8125537687003A3E06970047901D9
:10552300800F7900800BEAFCEBFD7ABF7B0412123B
:10553300DA02466D1264BB8A828B83E0228A828BF5
:10554300831254F5F82274F01203F874FC12095B09
:10555300E9851882851983F07402120B83ECF0A39A
:10556300EDF08A0A8B0B7508007402120B83E0249A
:10557300081257B9C0E07401120B83D0E012580926
:10558300A2E75008750EFF750FFF800A9004CEE066
:10559300F50EA3E0F50F851882851983E0C2E712A3
:1055A300580E542060071257DB740880041257DB2F
:1055B300E412580E540460071257E67480800512F3
:1055C30057E6741012580E541060061257C1E48047
:1055D3000B9004DBE0C0E01257C1D0E012580EA2DA
:1055E300E050037508205408600674104508F50858
:1055F3008A828B83A3A3E024FFFEA3E034FFFFEAA8
:105603001257CCC39402E0400F640B6009E0148E80
:10561300828F831257FF74034508F50875090090BC
:1056230004EEE0640170118A828B83A3A3A3A3E039
:10563300C394674003750910851882851983E0F5C3
:105643000C750D00740E780C120A74E50D4509F5FE
:1056530009E06402701B9004D3E08E828F83F09084
:1056630004D2E0C0E01234CAD0E0F0EE24FEFE80A3
:105673001CE06403701DEE24F9FEEF34FFFF7CE2AF
:105683007D04EEFAEFFB1212ECEE24FF1EEF34FF63
:10569300FF8003E0602F7401120B83E06018741421
:1056A300120B83E0650E7004A3E0650F700874406D
:1056B3004508F508800F8E828F83E50FF01234CAF8
:1056C300E50E1257F57401120B83E0F50C750D000E
:1056D300740A780C120A74E50D4509F509E06402B1
:1056E30070237402120B83125F208E828F83F074F7
:1056F30002120B831235FCC0E01234CAD0E0F0EE84
:1057030024FEFE8020E064037021EE24F9FEEF34D2
:10571300FFFF7402120B831258C5EEFAEFFB12124D
:10572300ECEE24FF1EEF34FFFF8003E0601C7414D3
:10573300120B83A3E08E828F83F07414120B83E029
:10574300C0E01234CAD0E01257F5EEF8EFF9E824BE
:10575300FF1EE934FFFFE50A1257CC70059004BE23
:1057630080039004CAE0FA04F0EA88828983125C19
:10577300CDE5091257FF8E82F583E508F0E50A248B
:1057830004F8E4350BF9E50A2402FAE4350BFBEEE1
:10579300FC8A828B83E0F50888828983E02508C32D
:1057A3009C125DE8EEF0A3EFF0850A82850B83A3DC
:1057B300E4F0F9022F3EF582E43DF583E022EA248A
:1057C30012F582E4350BF583221257D5350BF58399
:1057D300E022240DF582E422EA2410F582E4350B5D
:1057E300F58322EA1257EF350BF583222411F58254
:1057F300E422F0EE24FEFEEF34FFFF22F0EE24FF5E
:105803001EEF34FFFF221252BBE022F0EA12500FC8
:10581300350BF583E02274F11203F874FE12095B71
:10582300851882851983ECF0A3EDF0890B8A0E7538
:105833000A1A7415120B8312674A1224688A0C8B96
:105843000DAE0CAF0DEA4F605A7413120B83125F47
:1058530025125924F0A3E9124934E50BF0750A0027
:1058630078081208917C0B7D00EA1258B71208A839
:105873007411120B831207207402120B831258C582
:10588300A90E1234C01208A8E9F50A7016E50B2414
:10589300F96003147006123702D2E5F0EEFAEFFB5B
:1058A3001224BCA90A74021208A87F0702060D7C01
:1058B3000B7D00EE241BFAE43FFB12112474032238
:1058C300F583E0FCA3E0FD2274F61203F874F712EB
:1058D300095BEAFEEBFF7801EA2432124A4A6002CE
:1058E3007805EA1259241249317404125CC0AA18CB
:1058F300AB191212E0EE242F124907243112592951
:10590300120895740212093B79031A1A1234C2124F
:1059130008A8E9F5087007EEFAEFFB1224BC025E53
:10592300641230CAE822F582E43F1230BD124E04FD
:1059330004F078082274F21203F88A088B09ECFE4B
:10594300EDFF8A828B837405F0EC125D591260AD12
:10595300F0EA2403F50AE43509F50B850A82F58399
:10596300E0F50CA3E0F50DEC2425F582E43FF58387
:10597300120B54E50C1257EF350DF583120B48EC5F
:10598300125CB9AA0CAB0D1212E0850A82850B8357
:105993001267CA125B1E125B411252AAEE242F1227
:1059A3004A4AC0E0125B27D0E0125B6D2415F582F2
:1059B300E438F583E4125B6D12451EE4125B5585F2
:1059C3000A82850B83E02416FAA3E03400FB122538
:1059D300F48E828F83A3A3A3A3A3A3A3E0C0E08534
:1059E3000A82850B831243631257D538F583D0E0BF
:1059F300125B4CFAA3E0FB850A82850B831264B722
:105A0300E8240BFCE439FD8A828B83E08C828D834E
:105A1300125B688A828B83A3E0F50B8C828D83A350
:105A2300E0450B125DE0A3E0FCEA2403FA50010B0E
:105A3300ECA2E7E433C0E0E8240FF582E439F58310
:105A4300D0E0F074075C600478018002780075F0A0
:105A53000374075CA428F8EA28FAE43BFBE508246E
:105A630005F8E43509F98A828B831230BF125DE0B1
:105A7300AA82AB838508828509831252AA88828908
:105A830083E0F50A25E0540EFCE50AC4540FF50A39
:105A9300750B007403780A120A74E50A5438F8EC9B
:105AA30028F8EA28F8E43BF9850882850983A3A34B
:105AB300A3A3A3A3A3A3A3E8F0A3E9124E00FA8E22
:105AC300828F83A3A3E02AFAA3E03400FBC3EA98FE
:105AD300EB9940288E828F83A3A3E0F88508828503
:105AE3000983A3A3A3A3A3A3A3A3A3125B35C39A6D
:105AF30028850882850983A3A3A380168508828548
:105B03000983A3A3A3A3A3A3A3A3E4F08508828586
:105B13000983A3A3A3A3A3F0023558242BF582E49E
:105B23003FF58322125B2B22E82410F582E439F53A
:105B33008322E0FA8E828F83A3A3A3A3E0221244DD
